:020000022000DC
:1060000000000120756302005D6302005F6302000F
:106010006163020063630200656302000000000028
:1060200000000000000000000000000067630200A4
:1060300069630200000000006B6302006D630200F0
:10604000718002006F630200998202006F63020098
:106050006F6302006F63020021810200118C020055
:10606000458F02006F6302006F6302006F630200DE
:106070006F6302006F6302006F6302006F630200D0
:106080006F630200F16D02006F6302006F63020034
:106090008D6E02006F630200819502006F63020043
:1060A0006F6302006F6302006F6302006F630200A0
:1060B0006F6302006F630200000000000000000038
:1060C0006F6302006F6302006F6302006F63020080
:1060D0006F6302006F6302006F6302000000000044
:1060E00000000000000000000000000000000000B0
:1060F00000000000000000000000000000000000A0
:10610000000000000000000000000000000000008F
:10611000000000000000000000000000000000007F
:10612000000000000000000000000000000000006F
:10613000000000000000000000000000000000005F
:10614000000000000000000000000000000000004F
:10615000000000000000000000000000000000003F
:10616000000000000000000000000000000000002F
:10617000000000000000000000000000000000001F
:10618000000000000000000000000000000000000F
:1061900000000000000000000000000000000000FF
:1061A00000000000000000000000000000000000EF
:1061B00000000000000000000000000000000000DF
:1061C00000000000000000000000000000000000CF
:1061D00000000000000000000000000000000000BF
:1061E00000000000000000000000000000000000AF
:1061F000000000000000000000000000000000009F
:10620000354936480A1A02D0072291438D4634494F
:1062100034480A1A06D00722914381F309880222E2
:1062200082F3148830483149314A00F044F831484B
:106230003149324A00F03FF831483249324A00F0E1
:106240003AF832483249334A00F035F83248334997
:10625000334A00F030F833483349344A00F02BF821
:1062600033483449344A00F026F83448344900228F
:1062700000F02CF833483449002200F027F8334866
:106280003349091A082902DB002202604160314AC1
:1062900090471F481F49884205D00268043003B464
:1062A000904703BCF7E700208646EC46002000211B
:1062B000294A9047FEE7884207D0521A05D0037852
:1062C00001300B700131013AF9D17047884202D098
:1062D00002700130FAE770470000012000E0002062
:1062E000000001200000012060A40200982A002084
:1062F000CC2A0020D4630200D4630200EC9E02008A
:1063000060A40200982A0020982A0020C09F020062
:10631000C09F0200C09F0200C09F0200C09F0200F9
:10632000C09F0200C09F0200C09F02005FA4020045
:1063300094A40200CC2A0020CC2A0020CC2A0020E1
:10634000CC350020CC350020CC350020CC350020C9
:10635000CC5500209D6302009D910200FEE7FEE700
:10636000FEE7FEE7FEE7FEE7FEE7FEE7FEE7FEE705
:10637000704700BF1048804710484FF0070188431E
:1063800085460F4880470F48016841F4700101605D
:10639000BFF34F8FBFF36F8FFFF732BF0A480B4930
:1063A0000B4A884207D0521A05D0037801300B708F
:1063B0000131013AF9D170477163020000000120F8
:1063C000C57B020088ED00E0C09F0200982A0020F3
:0463D000982A0020E7
:1063D4007047000007B5044B0093044A402300F0C3
:1063E40030F803B05DF804FBF5630200CD2A002009
:1063F4002DE9F84388461446B2B10F4B0F4E0325DE
:10640400002743F00109224608EB0701002002F0AF
:106414001FFF0744241A48B933782BB14FF47A404C
:10642400C847013D02D13570BDE8F88301233370BC
:10643400002CE8D1F8E700BFC09F0200CC2A00205E
:106444007047F0B595B01D46164608460C4601F057
:106454000DFA1A9B0D93CDE9086500252B460822F9
:1064640005A920460A958DF82C500C9501F01AFACE
:10647400079B0293069B03939DF814308DF81150EB
:1064840003F00302012A1DD1BDF81420059DC3F3B6
:10649400C203C2F383168DF81030B20008230EA98C
:1064A400204601F0FFF9C5F3952508AB0093324669
:1064B40002AB0EA9284600F0F7FA204601F0DAF9FB
:1064C40015B0F0BD022AF8D1BDF81650C3F3C203CB
:1064D400C5F389158DF810300827082D2E4628BFDE
:1064E40008263B4632460EA9204601F0DBF9AD1BD7
:1064F40008AB02AA31460EA8374400F039FB002D40
:10650400EBD1DAE7037813F0040216D003F00303A7
:10651400012B03D0022B09D0012070470A680088A0
:106524000232C0F3831002440A60F5E70B68428824
:10653400023303EB92130B60EEE710467047000042
:106544002DE9F04FDFF830A187B00F460023044651
:10655400861C0DF1070015468DF8073000F048FE43
:10656400DAF800103960DAE90132134401335B1AB6
:106574000AF21C470AF583690AF21448B3421CD391
:106584000020002D73D004F00F039B0143F005039A
:1065940063F30F00DAF80020DAF80830134003330D
:1065A40032444AF823009DF80700CAF8002000F09E
:1065B40043FE012007B0BDE8F08F0121384600F00A
:1065C4009CFE484600F0B1FE404600F0AEFEDAF80C
:1065D4000400DAF808B0029000EA0B0003300AEB7A
:1065E400800002A9FFF78EFF029B50BB0BEA030257
:1065F4000AEB820203F1020CD2680392013303EA2C
:106604000B0B0AEB8B0B02F00302012ADBF80C10D4
:10661400CDF808C023D0022A16D08346404600F0A5
:1066240087FE10B1029BCAF804305946384600F080
:1066340064FEDAE901231344DAF8002001339B1ADB
:106644009CE70BEA0300C9E7BDF80E30C3F38913D6
:1066540003334FEA114B0CEB93030293DEE7BDF8CF
:106664000C30C3F383134FEA114B6344F5E7A405DD
:1066740044F006008EE700BFE02B002030B50A4C42
:1066840071B10A4A0A49121BD20800239A4201D165
:10669400002030BD31F82350854202D00133F5E7A4
:1066A400034654F83300F4E7389F0200B09F020019
:1066B400982A0020094B013903EBC000032909D8AB
:1066C400DFE801F00A0204060420704700797047ED
:1066D400407970470020704702207047389F0200BD
:1066E400034BD3E90030C31A58425841704700BFE6
:1066F400E02B00202DE9F04387B0FFF7F1FF0646B9
:10670400002840F0FE80804CC4F81804BFF34F8F7B
:106714006368A56802932B40033304EB830002A94A
:10672400FFF7F0FE029B18B1D4F81824002A62D0B7
:1067340005EA0302991C013304EB82022B4004EBAB
:106744008303D268DB68049302F00303022B0392F1
:10675400029163D1BDF80E306C48C3F38917502FF2
:10676400B84628BF4FF0500808F1080168F38F13AA
:10677400C1F30901ADF80E3001F049F806460028CE
:1067840000F0AA8001F072F80023082203A9304621
:1067940001F07EF8029925EA01020132B8EB820F7A
:1067A4004FEA820333D95FFA88F863B32940DDB234
:1067B400A8EB050803315FFA88F9A846544D04EBA9
:1067C400810108234246304601F062F83DB108F1E8
:1067D4000803DBB24A462946304601F059F8029BC9
:1067E400033703EB97070297D4F81834002B4BD1E7
:1067F400D4F810545BE0226893428CD36260304634
:1068040007B0BDE8F08342491D469946D9E72940BF
:1068140003310823424604EB8101DDE7012B5BD100
:10682400BDF80C303948C3F38311062928BF06216B
:1068340061F38913023101F00F018900ADF80C30C6
:1068440000F0E5FF0646002846D001F00FF80023CB
:10685400082203A9304601F01BF80027BDF80C20DC
:10686400C2F38312BB00974203F10803BCD202991E
:106874004A1C29400331029204EB81010422304670
:1068840001F006F80137E9E7304600F0F3FFFFF7BF
:1068940027FF80F00100C6B2B1E7EB685B7923B152
:1068A4002B6831461B6828469847EB681D68002D05
:1068B400F3D1304600F0DEFF0DF107008DF80750EC
:1068C40000F096FCD4F818340BB9029B63609DF871
:1068D400070000F0B1FCDAE7D4F8104454B90D4BCA
:1068E4000D480E49C01AC008000440F0020000F030
:1068F40063F8CCE7236820469B689847E3681C68E4
:10690400ECE700267BE700BFE02B0020249F020079
:10691400EC2B0020389F0200709F0200E49F0200CD
:106924002DE9F74F224E04460F46924601A9012253
:106934001846D6F808909B46FFF702FE20B3019D47
:106944004FF00008AA1CD84508EB020126D11948CB
:10695400002100F0A3FC80F31000000440EA14407E
:10696400E4006B1C04F0380403EA090305EA090592
:1069740044F0010406EB8303033544EA881444EA33
:106984008724D86046F8254096F820341BB1FFF7D9
:10699400B1FE0028FBD103B0BDE8F08F09EA010184
:1069A40006EB81015AF82830CB6008F10108CAE7E8
:1069B400E02B0020FC2F002000231A46FFF7B0BF75
:1069C40038B5084B0125D3F8104483F8205404B992
:1069D40038BDE3685D71236820465B689847E368C7
:1069E4001C68F4E7E02B002030B5C38885B004466A
:1069F4000D4633B1144A00921449154A284600F052
:106A0400E3FC217A05291DD0637A4BB1A088FFF7F6
:106A140051FE104B104953F82020284600F0D4FCB6
:106A2400227A0E4BA08853F8222003920021FFF70C
:106A340025FE039A0A490346284605B0BDE83040BE
:106A440000F0C2BC05B030BD19A0020001A00200D4
:106A5400F99F020088A002001EA00200ACA0020060
:106A640021A0020007B503460846197A052911D06A
:106A74005B7A2BB1094A0A49019000F0A5FC019800
:106A84000849019000F0A0FC019803B05DF804EB04
:106A940000F08FBC002AF8D0F2E700BF19A0020072
:106AA4001EA0020016A002002DE9F04385B01F4687
:106AB4000C9D002395F80C902B7306460C469046CB
:106AC40029463846FFF790FFB8F1060F09D8DFE8EA
:106AD40008F00412181F283340003146284600F0FD
:106AE40073FC002229463846FFF7BCFF85F80C905A
:106AF40005B0BDE8F08322683146284600F064FC06
:106B0400EFE7D4E900233146284600F05DFCE8E7CE
:106B1400A36800933146D4E90023284600F054FCCE
:106B2400DFE7E3680193A36800933146D4E90023C7
:106B3400284600F049FCD4E723690293E3680193F3
:106B4400A36800933146D4E90023284600F03CFCB6
:106B5400C7E76369039323690293E3680193A36816
:106B640000933146D4E90023284600F02DFCB8E711
:106B740008292DE9F74F80460E4617461C463DD896
:106B840000251B7B2573214610460193FFF72CFF3C
:106B9400DFF88CA0DFF88CB0AE4232D918F80520AB
:106BA4005946204600F010FC0135082DF4D11B494C
:106BB400DFF874A0DFF874B0204600F005FC4FF055
:106BC40000094E4524D918F809507E2D1ED82846B0
:106BD40002F0F0FD002814BF2A462E225946204612
:106BE40000F0F2FB09F10109B9F1080FE9D1012222
:106BF40021463846FFF736FF019B237303B0BDE8F7
:106C0400F08F5146204600F0DFFBCDE72E22E5E76A
:106C14005146204600F0D8FBE4E700BF35A002004F
:106C240031A002002BA0020033A0020037A0020012
:106C34001FB50021039001AA44F20100CDE901111E
:106C440000F004F805B05DF804FB000038B572B636
:106C5400FFF7B6FEFFF74EFD0028FBD1104B114C99
:106C6400114D1249E41AE408240444F00100FFF72A
:106C7400A3FED5F8F030DB0700D500BE0C4944F084
:106C84000200FFF799FEBFF34F8FEA68094B02F445
:106C9400E0621343EB60BFF34F8F00BFFDE700BF1B
:106CA400389F0200709F020000ED00E0C0A00200C7
:106CB400CCA002000400FA0549B152B1531E1A4097
:106CC40007D1826001608380C260104670470E2045
:106CD40070470920704710B58468C2688388121B06
:106CE400934208D3C26813400268D154C368013385
:106CF400C360002010BD0420FCE78268C3689A4288
:106D04000AD08268838813400268D35C0B7083685E
:106D1400013383600020704705207047094B5A787F
:106D240099780132D2B2914208BF00221978914277
:106D34001FBF02705878182202FB003014BF0430C1
:106D4400002070470430002073B5054600240DF17F
:106D540007000E468DF8074000F04AFA0DF10600D0
:106D6400FFF7DCFF90B10670094B9DF806204560E3
:106D74005A709DF8070000F05FFA24B9054B4FF4F0
:106D84008012C3F80021204602B070BD0424F0E74D
:106D94000430002000E100E0024B4FF43C6043F07B
:106DA40001031847E0A0020038B50C4B0C4C4FF41B
:106DB4000032C3F8802001254FF48033C4F84833EF
:106DC400C4F808336560FFF7E7FF064BA5600024AD
:106DD4001C60FFF7E1FF044B1C7038BD00E100E0CC
:106DE400001001402031002011310020F8B51F4B64
:106DF4001F491B680025C1F84051C1F84451C1F82E
:106E04004851C1F84C51C1F80051C1F804514BB379
:106E1400D1F8044517490968641A24F07F442F46C1
:106E24001A68A24209D8A41A15441A7CDE691AB158
:106E3400D3E905201F749047AEB90F4A0F4B117860
:106E44001B788B4205D10133DBB2022B08BF002330
:106E5400137012780A4B43F822500A4B4FF48012F5
:106E6400C3F80021F8BD3346DAE700BF243100201F
:106E740000100140203100201D3100201C31002071
:106E84001431002000E100E02DE9F04FA14AA249AD
:106E940013780978A14D994285B03CD00133DBB217
:106EA400022B08BF002313709D4912789D4B0F6875
:106EB40053F822003B1823F07F4300220B602B6819
:106EC40016461446944613B942B12B6006E019687D
:106ED40081420ED902B12B60091A196001272B686F
:106EE400DFF848A201934FF00008BEB9DFF844B2BE
:106EF40060E0401A0C44D968D3F81CE0C3F800C021
:106F040031B13A1922F07F42C3E90121DE611E4604
:106F140073460122D7E700263746E0E73446F66990
:106F24007F4B60681B68DFF810C2A168C21A22F0A8
:106F34007F42624500F2A6800A4422600122227444
:106F44002A680023C4E90133E361002A40F0A380E6
:106F54002C60CAE79BF802105A1CD2B291428BF8FB
:106F6400002004BF00228BF80020182202FB03B388
:106F74002A6819799C68022975D003297FD00129D0
:106F840018D1207CB0B9D3E90312A2605A69E26037
:106F94009A69654BA2611A78002A18BF014661609C
:106FA400BEE78C4200F094808946C9690029F8D173
:106FB400002323749BF800309BF801209A42C9D126
:106FC4002B68B8F1000F04D1019A9A4201D1002F25
:106FD40043D0002B79D0D3F800A0544D504BD5F8B2
:106FE40004751C68DFF854813E1B98F8003026F0C5
:106FF4007F4603369BB94FF48033C5F84433C5F854
:1070040004334B4B4FF400324FF00109C3F8802195
:107014001A60C5F80090FFF7BFFE88F80090B245EB
:107024002CBF5444A41924F07F44C5F84045D5F836
:107034000435DB1B23F07F43E41B033324F07F443C
:10704400A3420AD9D5F80435C5F84035FFF7A4FEA4
:10705400374B4FF40032C3F80021334B00221A702F
:1070640005B0BDE8F08F114691469FE71174D269CF
:107074000123002AFAD1002B9CD02A609AE700232E
:107084001946F6E71B1A23F07F438B4234BFCB1A11
:107094000023236052E721681368994213D85B1ACE
:1070A4001360E26154E7091AD8691A4638B10346F5
:1070B40018688842F7D3401A1860184613462160AE
:1070C400E061DC6111E71346F2E7FFF76DFEC4E708
:1070D4004C4511D1D3692B6073B9DFF844E001202A
:1070E400CDE90212CAF80800CEF800300E4B187031
:1070F400FFF752FEDDE902120B68C969C9F81C10DA
:1071040011B1086803440B602B68934218BF4FF019
:1071140001084DE71C3100201D31002024310020DE
:1071240020310020143100201031002000100140D3
:1071340000E100E004300020FEFF7F001131002058
:107144002DE9F743DFF8848098F8023005460E46AF
:107154001746ABB3A0B3042930D9436983B3437C46
:107164000024012B0DF107000CBF8946A1468DF8C0
:10717400074000F03DF80DF10600FFF7CFFDD8B150
:10718400012303700F4B4560D3F80435C0E904971D
:10719400C0E902369DF8063088F801309DF80700F2
:1071A40000F04AF824B9084B4FF48012C3F80021C8
:1071B400204603B0BDE8F0830424EFE70724F7E793
:1071C4000824F5E70010014000E100E0043000204D
:1071D400064A92783AB130B1426922B1002202746F
:1071E4000221FFF7B1BD0820704700BF0430002022
:1071F40070B5EFF3108672B60C4A946801239CB9FB
:1072040093600B4B0B4DD3F8801029401160C3F8E9
:107214008050D3F8841051604FF0FF32C3F88420BB
:10722400047006B962B670BD0370FAE72831002015
:1072340000E100E0FC06FFBD084B9A6810B55AB1A6
:1072440050B9EFF3108172B6054A1C6814605C688B
:107254005460986001B962B610BD00BF28310020A7
:1072640000E100E001F01F024B090121914000EB15
:10727400830000F01EB801F01F0301229A404B095D
:1072840000EB8300D14300F02CB84B0901F01F013F
:1072940050F82300C84000F00100704710B50346C1
:1072A40053E8000F0A4643E8002494F0000FF7D196
:1072B40010BD10B5034653E8002F42EA010043E82D
:1072C400000494F0000FF6D110BD10B5034653E846
:1072D400000F00EA010243E8002494F0000FF6D105
:1072E40010BD10B5034653E8002F02EA010043E83D
:1072F400000494F0000FF6D110BD10B5034653E816
:10730400002F02EB010043E8000494F0000FF6D1D3
:1073140010BD10B5034653E8002FA2EB010043E86B
:10732400000494F0000FF6D110BD0121FFF7C1BF96
:107334000021FFF7CABF37B5054600240DF1070049
:107344008DF80740FFF754FF2A686B68116899426B
:107354000ED9481E106011F8013CEC68298A01FB23
:107364000344AB6811791B1ADBB2994238BF13711D
:107374009DF80700FFF760FF204603B030BD37B526
:10738400054600230DF107000C468DF80730FFF782
:107394002FFF2A681368591C1160E968641A298A46
:1073A400B4FBF1F41C709DF80700FFF745FF03B030
:1073B40030BD826810B504462AB14369016800698A
:1073C40098470023A36010BD0EB403B5039921B1FF
:1073D40004AB01AA019300F077F802B05DF804EB66
:1073E40003B070470A2938B504460D4602D10D2171
:1073F400FFF7F8FFA3682268591CA160D554D4E9AB
:1074040001329A4204D32046BDE83840FFF7D1BF89
:1074140038BD00002DE9F84F9846DDE90A431546CA
:1074240082460F460A464FF00109AA420FD2C145CF
:1074340038BFC14613F0010B01D16CB900240126F9
:10744400B8F1010F1BD908F1FF386E43F8E709F1D1
:107454000109B2FBF5F2E8E79B070ED5B8F1000F7E
:107464000CBF30262026A145E9D2013C31465046C6
:10747400FFF7B8FF002CF6D1E0E72026F3E7B7FBCF
:10748400F6F39D42E1D9DFF83C80B7FBF6F35046B2
:1074940018F8031006FB1377FFF7A4FF3346AB423B
:1074A400B6FBF5F6F1D2BBF1000F02D00CB1A14549
:1074B40001D3BDE8F88F20215046013CFFF792FF2D
:1074C400F4E700BFE6A002002DE9F74F0546174692
:1074D4008846002900F03E8118F8011B49B92B7B2E
:1074E400002B00F03781284603B0BDE8F04FFFF7CA
:1074F40060BF252940F0B780002698F800302D2B76
:10750400424608F1010823D0302B24D02B2B25D060
:1075140000242A2B02F1010123D13B681A1D1B68A8
:107524003A601C440A4613782E2B26D101324FF0C0
:10753400000A104610F8011BA1F1300CBCF1090F30
:107544001DD80A2303FB0A13A3F1300A0246F0E70D
:1075540046F00106D1E746F00206CEE746F00406FF
:10756400CBE711F8013CA3F130000928DBD80A224B
:1075740002FB0434303C0A46CBE74FF0000A12F811
:10758400011B01F0FB0068289046F8D0782909D83F
:107594006F290CD8632962D022D8252963D05829B1
:1075A40000F0888098F80030002B95D197E7703967
:1075B4000829F7D801A353F821F000BF337702005C
:1075C400A9750200A9750200C9760200A975020016
:1075D400A7760200A9750200A9750200B976020017
:1075E400642901D06929DDD13A68D2F80090111DCF
:1075F40089EAE9723960A2EBE9724FF0010B092ABA
:1076040035DCD34538BFD3462CB1B9F1000F01DBCB
:10761400720700D5013CB30702D5BAF1000F03D0BD
:10762400F00701D44CBB0024B9F1000F2DDAC9F1E5
:1076340000092D212846FFF7D5FE06F00302022A91
:1076440004D1BAF1000F01D11CBB0024CDE90046DE
:1076540053460A2249462846FFF7DCFEA2E73B6868
:107664001A1D19783A602846FFF7BCFE9AE70A23E8
:107674000BF1010BB2FBF3F2C1E7A345D4D22021F5
:107684002846013CFFF7AEFECCE77107D5D52B2188
:10769400D0E7A345DAD230212846013CFFF7A2FE09
:1076A400D2E73968CDE900460A1D3A6053460A22FA
:1076B4000968D0E739680A1D3A60CDE900465346A7
:1076C4001022F5E73B681A1D3A6016F00106D3F85C
:1076D400009024D1B9F1000F03D0484602F0D1F84C
:1076E4000646B4421DD809F1FF3919F8011F0029D3
:1076F4003FF458AF2846FFF775FEF6E728460136F3
:10770400FFF770FE19F806100029F7D1A642BFF45E
:1077140049AF20212846013CFFF764FEF6E7002626
:10772400F0E720212846013CFFF75CFED9E73B68DF
:107734001A1D3A60302128461C68FFF753FE782151
:107744002846FFF74FFE00220823CDE900322146E8
:10775400102280E703B0BDE8F08F00BF2DE9F84F99
:10776400B0F806A04579D2F800B09DF828900AFB3D
:1077740005F5043D88460BEB0301A94203F104041B
:1077840088BFA5EB030BB4FBFAF607460AFB1644C5
:10779400C2F800B04EB9AAEB04055D4528BF5D46AA
:1077A400BBF1000F04D1BDE8F88F3F68013EF1E75B
:1077B400043408EB06003C442A46B9F1000F0DD00E
:1077C4002146ABEB050B02F033F8DA452E443F6853
:1077D40055464FF0000428BF5D46E1E701462046C8
:1077E400EFE7F8B546790146721E05460023934239
:1077F4002D6803D30024A64202D8F8BD0133F6E76E
:107804000F682846FFF7BBFD01343946F3E72DE93D
:10781400F843068ACD1C0746FFF78DFD043E354428
:107824000446B5FBF6F5F0B14FF48073EDB28380F6
:10783400C680013D076081464FF00008A84512D27A
:107844003846FFF778FD064648B163790133637122
:1078540008F10108C9F8000007608146EEE72046F8
:10786400FFF7BFFF34462046BDE8F883012104300A
:10787400FFF743BD10B5012104460430FFF749FD6D
:10788400C0B220B92046BDE81040FFF7AABF10BD22
:107894001FB503920022009203AAFFF75FFF05B011
:1078A4005DF804FB1FB503920122009203AAFFF7BF
:1078B40055FF05B05DF804FB41DF7047064B10B57A
:1078C40000241C70054B1C60BFF35F8F04490548FE
:1078D40000F032F8204610BD3C3100204031002039
:1078E40000A102003431002007B500230DF1070088
:1078F4008DF80730FFF77CFCF1EE103A23F09F037C
:10790400E1EE103ABFF35F8F0A4B4022C3F88421A3
:107914009DF80700FFF790FC01F016FE20B103B0BC
:107924005DF804EBFFF7C8BF20BF40BF20BF03B022
:107934005DF804FB00E100E00B684A684360934291
:1079440008BF0023016008BF43607047436843B128
:107954000268916852680B449342436004BF002359
:107964004360704710B50446C0B200F0D1F8204619
:1079740010BD00000648074A03780749D35C01227A
:1079840013B1043001F0CAB80C3000F0ADBE00BF32
:10799400A02A00208C3100206C3100200648074AC0
:1079A40003780749D35C012213B1043001F06EB8A7
:1079B4000C3000F04BBE00BFA02A00208C31002008
:1079C4006D31002037B50578012D0DD0022D2ED054
:1079D40005BB1E491E48FFF790F9002832D103B0B9
:1079E400BDE83040FFF7DABF43681A4C19782046E7
:1079F400FFF771F980B18DF800500190164B68467D
:107A04001B689847A168E368A2885B1A9A420AD364
:107A1400FFF7B0FF03B030BDA268E3689A42F1D02B
:107A24008DF80000EAE70D4B01221A70F2E7C368F3
:107A34008DF800500193FFF79DFF074B68461B68C4
:107A44009847E7E703238DF80030F6E76D3100200F
:107A54005C3100204831002044310020583100209E
:107A6400F0B51F46234B89B004461A600D46002921
:107A74003DD08A8820480968FFF71EF9002834D1D0
:107A8400AA89A9681D48FFF717F900282DD11C4EB3
:107A94000FCE6D460FC596E80F0085E80F006369A9
:107AA4000693237C174A18488DF81C70003B18BFB6
:107AB40001238DF81430637C002B14BF0E230023A4
:107AC4008DF81530E3680293A36803932368019348
:107AD40069466368009300F063FA30B90B4B187081
:107AE4002368013301D0FFF745FF09B0F0BD07203B
:107AF400FBE700BF44310020483100205C31002006
:107B04000CA10200C9790200A02A002058310020EB
:107B140010B501460E48FFF7DEF80446A8B90D4833
:107B24000D4A0378D35C63B1043000F0A3FF60B95D
:107B34000A490748FFF7E1F838B9BDE81040FFF7F4
:107B44002DBF0C3000F076FDF1E7204610BD00BFDC
:107B54005C310020A02A00208C3100206D310020EF
:107B64004FF0704393F8E02F062A10D1D3F8E42F96
:107B740012070CD1D3F8E80F00F0F003302B08D033
:107B840000F0E000A0F14003584258417047002043
:107B94007047012070474FF0704393F8E02F062A96
:107BA4000CD1D3F8E42F120708D1D3F8E80F00F072
:107BB400F000A0F13003584258417047002070474C
:107BC40008B5FFF7CDFF40B14FF08053884AD3F892
:107BD4002433C3F30423C2F84035FFF7DCFF10B1AC
:107BE400844B854A5A67FFF7BBFF48B14FF0805377
:107BF4004FF08042D3F84432C3F34233C2F83C35E9
:107C0400FFF7C9FF30B17D4AD2F8FC3023F080730E
:107C1400C2F8FC30FFF7A4FF40B14FF080430022CC
:107C2400C3F80C21C3F81021C3F83825FFF7B3FFBC
:107C340020B14FF080430322C3F8A025FFF7ABFF28
:107C440060B16F4B0522C3F810260122C3F88826C1
:107C54000022C3F818263F22C3F814264FF07043BD
:107C640093F8E02F062A50D1D3F8E42F11074CD112
:107C7400D3F8E83F03F0F003502B46D14FF0805285
:107C8400604BD2F80414C3F82015D2F80814C3F8D2
:107C94002415D2F80C14C3F82815D2F81014C3F81C
:107CA4002C15D2F81414C3F83015D2F81814C3F8EC
:107CB4003415D2F81C14C3F84015D2F82014C3F8B4
:107CC4004415D2F82414C3F84815D2F82814C3F87C
:107CD4004C15D2F82C14C3F85015D2F83014C3F84C
:107CE4005415D2F83414C3F86015D2F83814C3F814
:107CF4006415D2F83C14C3F86815D2F84014C3F8DC
:107D04006C15D2F84424C3F87025FFF729FF48B155
:107D14004FF080534FF08042D3F8583203F04F03B2
:107D2400C2F8E43EFFF71CFF48B14FF08043D3F89C
:107D34000024D20744BF6FF00102C3F800244FF0BF
:107D44008053D3F83021062A0AD1D3F83431062BD4
:107D540001BF2D4AD2F83C3743F48063C2F83C3764
:107D6400264AD2F8883043F47003C2F88830BFF34F
:107D74004F8FBFF36F8F4FF01023D3F80022002AE8
:107D840003DBD3F80432002B2EDA204B0122C3F894
:107D94000425D3F80024002AFBD04FF0102215212B
:107DA400C2F80012D3F80024002AFBD04FF01023AD
:107DB4001522C3F80422154BD3F80024002AFBD063
:107DC4000022C3F80425D3F80024002AFBD0BFF313
:107DD4004F8F0A490E4BCA6802F4E0621343CB602A
:107DE400BFF34F8F00BFFDE70A4B0B4A1A6008BD73
:107DF4000030014000C007400DF0ADBA00ED00E0D6
:107E04000050004000C000400010004000E001406D
:107E14000400FA05B42A00200090D00338B5074CBA
:107E2400051E04F1080318BF1C4623682BB11A6809
:107E340022605B6828469847F7E738BD7831002010
:107E440020B9054B01225A70FFF7E8BF012802D17F
:107E5400014A9070F8E770477031002020B9034B55
:107E640001225A70FFF7DABF704700BF703100205B
:107E740038B50B4C237883B90A486360A360236147
:107E8400E36000F0CBF8054601F05EFB08B900F0B2
:107E9400D1F801232370284638BD8525FBE700BFB0
:107EA40070310020457E020037B50B4C00230DF1E4
:107EB40007008DF80730FFF79BF9E368013BE360A7
:107EC400E56815B900F0C8F8A5709DF80700FFF73C
:107ED400B3F903B030BD00BF70310020012813B5E1
:107EE40008D003281CD018B9114B0122C3F88020F4
:107EF40002B010BD0F4C00230DF107008DF80730C0
:107F0400FFF776F923780BB9FFF7B2FFE3689DF822
:107F140007000133E3600123A370FFF78DF9E7E75E
:107F240000F088F802B0BDE81040FFF7BDBF00BF05
:107F340000E100E0703100201FB503788DF80030B7
:107F44004368019383688DF80830C368054A039336
:107F5400054B684653F8213052F82110984705B074
:107F64005DF804FB84310020883100201FB50378BC
:107F74008DF800304368019383688DF80830C36836
:107F8400054A0393054B684653F8213052F82110F3
:107F9400984705B05DF804FB843100208831002047
:107FA400F0B5194B90F800C091F81DE043F82C206F
:107FB400164B16460A6943F82C20154B03F80CE0BF
:107FC4000C4607460FCC89B06D460FC594E80F00E8
:107FD40085E80F00CDF810C0BEF1000F09D0002EC7
:107FE4000C4A694608BF3246381D00F081FC09B0CE
:107FF400F0BD002E084A694608BF324607F10C005E
:1080040000F05EFAF3E700BF8831002084310020DD
:108014008C3100203D7F0200717F0200044A1379F5
:1080240023B901211060918018467047852070475C
:1080340090310020074B1A68D2075FBFC02283F833
:10804400002301221A604FF080430122C3F818254F
:10805400704700BF00E100E04FF080430122DA6086
:10806400D3F81824D203FBD4704700004FF08043A8
:1080740007B5D3F800217AB10022C3F80021D3F860
:1080840000210092009A0122C3F808230F4B58796B
:1080940010B95A711B6898474FF08043D3F80421F4
:1080A40082B10022C3F80421D3F804210192019A79
:1080B4000222C3F80823054B1B68012003B05DF8B6
:1080C40004EB184703B05DF804FB00BF90310020B7
:1080D40000F1804000F5C040002382B003600368D3
:1080E4000193019B02B07047800000F1A040D0F8DA
:1080F400002722F44032C0F80027D0F8003743EAC2
:108104000141C0F800177047C208012300F00700BE
:1081140003FA00F08B5C1843885470472DE9F04F44
:1081240087B00024584D03944FF48072012102F16A
:10813400804303F5C04390B21B68012B06D1D5F8E8
:1081440004330B4202D0FFF7C3FF0C430432B2F5F1
:10815400907F4FEA4101EAD14B4BD3F87C31012B9C
:108164000AD14FF4BE70FFF7B3FF4FF0A04344F0C1
:108174000044D3F810350393E3B2D3B1434F002541
:108184000126344210D0AB0003F1804303F5C04311
:10819400D3F81005D3F8101557F8253023B1C1F3DF
:1081A4000141C0F3042098470135082D4FEA4606E3
:1081B400E7D1002C61DA00224FF0FF33CDE904232C
:1081C400DFF8C880DFF8C89000273E464FF0A04B88
:1081D40019F9014B631C45D0C4F3C20318336B4433
:1081E4000122E5B204F03F0004F0070402FA04F4AB
:1081F40013F8042C224235D008EB0002AD0992F9A1
:10820400302058F822A0BAF1000F09D1032D29D14A
:1082140004A901930090FFF777FFDDE9000301E073
:10822400032DF5D000F5E07113F80C3C5BF8211038
:108234002342C1F3014105D0022913D1032D0CD1EE
:10824400294604E003290DD1032D06D10221009013
:108254000136FFF749FF0098F6B2BAF1000F01D0DA
:108264002946D0470137042FB2D136B14FF0A0438D
:10827400039AD3F81035934202D107B0BDE8F08FCA
:108284000393049B05939DE7006000409831002010
:10829400E8310020014B1B68184700BFF43100206F
:1082A4000E4B984237B50C4602D0002003B030BDC7
:1082B40000230DF107008DF80730FEF799FF084BF6
:1082C4001D7915B901221C601A719DF80700FEF78B
:1082D400B3FF002DE9D01120E8E700BF00200040E3
:1082E400F43100200023435082B043580193019B92
:1082F40002B070470A4610B54FF48E71FFF7F2FFD3
:10830400136A9168C95C136A01331362C0F81C15BF
:1083140010BD024608B500684FF49271FFF7E2FF02
:1083240010684FF48471FFF7DDFF136801221A60AF
:1083340008BD8B690A4610B54FF4847123B9FFF761
:10834400D1FFD0F8183510BDFFF7CCFF536AD168C0
:10835400D0F81805C854536A01335362F3E7000098
:108364001FB501238DF80030044BCDE90110D3E98A
:1083740000126846904705B05DF804FBFC3100200C
:1083840030B54D4DD5F804339A0585B051D5D5F89F
:108394002431002B4DD04FF492712846FFF7A2FFF1
:1083A4004FF40173C5F80833444B93F829200AB9F4
:1083B40001226A60404902228DF80020D1F880240D
:1083C400C1F8802403929A690292DA680192002229
:1083D400C3E906226846D3E9001290473648D0F82C
:1083E4001C315BB1354A116A536999424DD292F8F6
:1083F4002830002B49D11146FFF77CFF2E48D0F8D6
:108404004431002B55D04FF4A271FFF76BFF2B4B77
:1084140093F829200AB1012202609A69002A48D0FF
:10842400586AD96800229A6105B0BDE83040FFF768
:1084340097BFD5F804335B07D0D5D5F80831002BA6
:10844400CCD01E4C1C482146FFF773FF636AA26917
:108454009A42C3D1E369E1684BB1A3612369E36044
:108464000023606AE3616362FFF77AFFB6E794F87A
:1084740029300BB901236B600F4B4FF40172C3F821
:1084840008230023606AA361EEE74FF48E710A4863
:10849400FFF728FF51690029B0D0002302919168A9
:1084A4008DF80030019153616846D2E90013984772
:1084B400A4E705B030BD00BF00200040FC3100201F
:1084C4002DE9F843564D90F804802C2303FB085300
:1084D400064693F82A300C469146002B40F09B80C8
:1084E40050490068FFF7DCFE0746002840F09580FD
:1084F40022683068511C0BD04FF0A04101239340F7
:10850400C1F8083502F5E0734FF0030C41F823C0BD
:1085140061684B1C1FBF01F5E0734FF0A04C4FF096
:10852400000E4CF823E0A369C0F8243594F814C075
:10853400637DBCF1010F4CEA0303C0F86C35C0F84D
:108544001415C0F80C251DD1A268531C1FBF02F5D9
:10855400E0734FF0A0414FF0000C41F823C0E368F2
:10856400591C0BD04FF0A04C01219940CCF80815B0
:1085740003F5E0714FF0030E4CF821E0C0F8083524
:10858400C0F810252C2202FB08F2AB18C3F80490A3
:108594002369AB50B9F1000F2AD04FF48E71247FB8
:1085A400FFF7A0FE30684FF4A271FFF79BFE32681C
:1085B4001D4BC2F80433130B42F30732002AA8BF41
:1085C40002F160404FEA4411BABF184803F00F04A7
:1085D40000F56140C9B2B4BF015580F8001303F03F
:1085E4001F03012101FA03F35209114941F8223012
:1085F40033680422C3F800252C2303FB085300220C
:10860400C3E9062283F829205A61012283F82A202B
:108614003846BDE8F8830827FAE71127F8E700BFD2
:10862400FC310020858302008000020014ED00E08C
:1086340000E100E00279044B2C2101FB023358696C
:10864400003818BF01207047FC3100202DE9F84F95
:10865400064689469246FFF7EDFF044600283DD1C1
:1086640096F804801F4F2C2508FB057B4FF48E7170
:10867400CBF82000CBF814A08BF82800CBF8089096
:108684003068FFF72FFE3068012383605946FFF7F7
:1086940031FEDBF804305D4613BB30682A6A6B692F
:1086A4009A4211D33368D3F81C21002AFBD001224B
:1086B400DA6000202C2303FB087700237B61BDE8EC
:1086C400F88F95F828303BB9D0F81C31002BF8D03E
:1086D4005946FFF70FFEE1E70F20EBE71120EEE725
:1086E4002046ECE7FC3100202DE9F0473A4D0779AC
:1086F4002C2303FB075306465C6824B103684FF43C
:108704000170C3F808032C2303FB0753986950B185
:10871400D869002841D024B133684FF40172C3F8FA
:108724000423112436E09A61D9605862D8612C235D
:1087340003FB075393F829301BB910B93046FFF7F0
:10874400E8FD4FF02C0808FB075A3068DAF80430CB
:10875400002B37D14FF4A271D046FFF7C3FD306828
:10876400D0F82491D0F80831D0F84441CBB914B9E9
:10877400B9F1000FF3D02C2303FB07550023AB61A1
:10878400B9F1000F24D12CBB95F8291033680122CC
:10879400B1B11A602046BDE8F0871961DA610120A1
:1087A400C5E7B9F1000FE6D1002CE4D14146FFF74B
:1087B400C0FDDAF82430DAF818209A42CFD8DAE784
:1087C4005A60E7E74FF40173C0F804330024E1E78B
:1087D4000324DFE70F24DDE7FC31002000234350AE
:1087E40082B043580193019B02B070471FB5012327
:1087F4008DF80030044BCDE90110D3E9001268462E
:10880400904705B05DF804FB283200207FB5364A56
:10881400D2F82461002E46D010464FF49271FFF72F
:10882400DDFF02238DF80030D2F88034C2F88034A2
:108834000393D2F83C3502932C4BDA680192002260
:10884400C3E906226846D3E9001290472648D0F8C7
:10885400443173B14FF4A271FFF7C0FF234B9A69FF
:108864003AB10022C3E90622D968D0F83C05FFF7E3
:10887400BDFF1D48D0F820319BB14FF49071FFF734
:10888400ADFF1A4B5A6962B1D0F84C15029100221F
:1088940099688DF8002001915A616846D3E9001265
:1088A400904704B070BDD2F81031002BCED04FF4F5
:1088B40088711046FFF792FF0C4BD2F83C0599697A
:1088C4008842C3D1DC69D96864B1D2F8005225F07A
:1088D4002005C2F800521A699C61DA60DE61FFF774
:1088E40085FFB3E79C61FAE70020004028320020AE
:1088F4002DE9F8435A4E90F80480242303FB0863BF
:10890400054693F820300C469146002B40F0A38096
:1089140054490068FFF7C4FC0746002840F09D80D6
:1089240022682868511C0BD04FF0A04101239340CA
:10893400C1F8083502F5E0734FF0030C41F823C089
:1089440061684B1C1FBF01F5E0734FF0A04C4FF062
:10895400000E4CF823E0A369C0F8243594F814C041
:10896400637DBCF1010F4CEA0303C0F86C35C0F819
:108974000C25C0F814151DD1A268531C1FBF02F5A5
:10898400E0734FF0A0414FF0000C41F823C0E368BE
:10899400591C0BD04FF0A04C01219940CCF808157C
:1089A40003F5E0714FF0030E4CF821E0C0F80835F0
:1089B400C0F81025242202FB08F2B318C3F804906F
:1089C4002369B350B9F1000F34D04FF48871227F7A
:1089D400FFF704FF28684FF49071FFF7FFFE286843
:1089E4004FF49271FFF7FAFE28684FF4A271FFF773
:1089F400F5FE2B681C49C3F80413190B43F3073322
:108A0400002BAEBF03F1604001F00F0417484FEA9A
:108A14004212A8BF00F56140D2B2B4BF025580F83B
:108A2400002301F01F01012202FA01F15B09104A3F
:108A340042F823102B680822C3F80025242303FBE3
:108A440008660023C6E906337361012386F82030E3
:108A54003846BDE8F8830827FAE71127F8E700BF8E
:108A640028320020118802001003020014ED00E0F7
:108A740000E100E00279044B242101FB0233586930
:108A8400003818BF012070472832002001F06043ED
:108A9400B3F1005F2DE9F04706468846924635D18A
:108AA40090F80490FFF7E6FF044688BB1A4F30683D
:108AB400242505FB09754FF49071C5F814A0C5F879
:108AC4000880FFF78BFE4FF4AC713068FFF786FE29
:108AD40033686A69A968C3F84415C3F848250122B4
:108AE4009A606A68B2B9D3F82021D3F858014AB918
:108AF4000028F8D00F20242303FB097700237B618F
:108B0400BDE8F087002818BF0F20F4E71020F7E72E
:108B14001120F5E72046F3E728320020F8B501F0EC
:108B24006043B3F1005F04460F465ED10379304DD4
:108B3400242101FB0351496821B100684FF40476F4
:108B4400C0F80863242000FB03539E6956B1D8691A
:108B5400002839D021B123684FF40472C3F80423E8
:108B6400112030E09A61DF60DE6120684FF4887183
:108B7400FFF734FE20684FF4A271FFF72FFE23683D
:108B8400C3F83475C3F8382516BB01221A6024795A
:108B9400242202FB045252680ABBD3F81011D3F802
:108BA4004421D3F82401114302D10028F5D00A4608
:108BB400242303FB04550023984218BF03209A4240
:108BC400AB6118BF0F20F8BD1F61DA610126CCE745
:108BD400D3F8002242F02002C3F80022D7E74FF472
:108BE4000472C3F804230020EDE71020EBE700BF74
:108BF4002832002000F1804000F5E040002382B0DC
:108C0400036003680193019B02B07047F0B5524BB7
:108C1400524CD3F8043185B0002B3DD094F82E206B
:108C24004FF48270FFF7E6FF2AB394F82F3013BB9A
:108C3400494AD2F80031002B32D04FF48070FFF74C
:108C4400D9FF638B94F82D00834250D921891B1AD4
:108C54009BB289B26383CB1A616801EB4303C2F808
:108C64002C36C2F830064FF48270FFF7C3FF3A4B3C
:108C740001225A6014E0636802932389ADF80C3032
:108C8400E36800218DF8041033BB2374236801A822
:108C94009847002384F82F3094F82E30002BC7D146
:108CA4002D4BD3F810315BB14FF48870FFF7A2FF5E
:108CB4000023237402238DF8043001A82368984705
:108CC400254BD3F81431EBB14FF48A70FFF792FFC0
:108CD4000023237405B0F0BD208B60836360208182
:108CE400E160002AD2D11C4B01221A60CEE7BAD12E
:108CF400E368012184F82F1013B100216183AEE7EA
:108D04006383B0E766694FF000470125002EE1D088
:108D1400B6FA86F227FA02F34632920026EA0306EE
:108D240002F1804303F5E0431B68002BEED01046AC
:108D3400A2F58C72FFF75EFFD30882F00402C2F33F
:108D440080028DF808308DF8045023688DF80920CE
:108D540001A89847DAE700BF007000404C320020B9
:108D640038B51E4B044693F82C00A8BB1C4A196066
:108D74002178C2F8F0156178C2F8F415E578187412
:108D8400012183F82D00586183F82F0083F82E50B9
:108D940083F82C106FF00043C2F808334FF482704C
:108DA400FFF728FF4FF48070FFF724FF4FF48A7019
:108DB400FFF720FFA3780B485B01DBB280F8073391
:108DC400802303600223C2F804330DB1C2F80413F4
:108DD400C2F80015002038BD0820FCE74C32002002
:108DE4000070004000E100E070B52A4B1A7C02F0EC
:108DF400FF05002A4BD10A79012A9CBF264CC4F8EE
:108E0400005500F10C0503EB4504247924B993F8CB
:108E14002D40013483F82D4003EB4503CC790D7AC2
:108E24008E781C715D714B7836021B0106F4E06686
:108E340003F0300333430E7806F003063343CE7851
:108E4400360306F480563343160406F4E02633430F
:108E54004E798979360506F480160906334301F004
:108E640080710B430C4901EB0016000100F18040B6
:108E740000F5E040012AC6F81835C0F81455C0F8CA
:108E8400104502D80123C1F80035002000E011206C
:108E940070BD00BF4C3200200070004070B5264AFF
:108EA400264B05461220C2F808031C7C022C03D171
:108EB400C2F80403112070BD187C01281CD1D868A5
:108EC40018B10223C2F80433F4E7DD60198393F880
:108ED4002E305BB9D2F80031002BFBD04FF48070F8
:108EE400FFF788FEC2F82C56C2F83016124B022245
:108EF400C3F804230020DEE7022093F82E40C2F8D2
:108F04000403012600201E745D601981D8603CB101
:108F1400598393F82D30C2F82C56C2F83036CAE77C
:108F2400C2F82C564FF48070C2F83016FFF762FE78
:108F340016602046BFE700BF007000404C3200209E
:108F44002DE9F341104C114F114E00254FF4803898
:108F54002368A4F5004080B26BB1D7F8043308FA53
:108F640005F21A4207D00023236023680193019B72
:108F7400D6E9003198470135042D04F10404E7D102
:108F840002B0BDE8F08100BF408100400080004095
:108F94007C320020032811D8012A0AD101290FD1DB
:108FA40000F10E02D2B20D4B00EB40001A54002027
:108FB40070470129F7D0022904D049B1072070472E
:108FC4000022F8E7054B00EB400018444270EEE73E
:108FD400024B00EB400018448270E8E7883200201E
:108FE40008B5012202210020FFF7D4FF08B10728A9
:108FF40010D1072202210120FFF7CCFF08B1072876
:1090040008D100210A220846FFF7C4FF10B107283F
:1090140008BF002008BD00000388102B10B502D043
:10902400112B1ED010BD1A4C2168B1B9012208467B
:10903400FFF7B0FF08B1072824D10722022101203D
:10904400FFF7A8FF08B107281CD104220221002041
:10905400FFF7A0FF08B1072814D123680133236068
:10906400E0E70B4A1368013B1360002BDAD1FFF7EA
:10907400B7FF0028D6D0074B1B68002BD2D0BDE821
:1090840010401847034B1B68002BE6D09847E4E7D1
:1090940098320020943200200378022B02D14068D9
:1090A400FDF7C6BD012BFAD07047000038B5037830
:1090B40004462BBB40680621FFF7F0FE08B1FDF71C
:1090C400B7FD62680023901E4FF461640A3230F8E1
:1090D400021F11FB04F103EBA12382429BB2F6D1E0
:1090E4000848094D6421B3FBF1F100F06BFB4FF428
:1090F400967445F001054FF47A40A847013CFAD133
:1091040038BD00BF62A10200A0A102001FB50C4A35
:1091140010685168127A01AB03C30A490A481A70ED
:10912400FFF71EFE08B1FDF783FD01A90020FFF73C
:109134005BFE08B1FDF77CFD05B05DF804FB00BFE4
:1091440074A10200B190020098A1020030B50E4D46
:109154000FCD8BB004AC0FC495E803000B4B0C4A45
:1091640000934FF4807384E80300CDE90223019354
:10917400084A0723694604A8FEF772FC08B1FDF704
:1091840057FD0BB030BD00BF80A102009C3200200F
:109194009C3300209D90020008B5FEF78FFB08B1B8
:1091A400FDF746FDFFF7D2FFFFF7B0FFFEF79CFB8C
:1091B400FCE70369C26893429CBF80681B18013BAB
:1091C400981A70472DE9F843D0E902940546A9EBB3
:1091D40004084068904520440F46144404D900F024
:1091E40027FBEC60BDE8F8834246A4EB090400F0D9
:1091F4001FFB6868224607EB0801F0E72DE9F843F6
:10920400C5680646894617464FF000083469B368B6
:109214007068A54228BFE418013C621B5C1BBC4279
:1092240028BF3C46944228BF144649462844224657
:1092340000F0FEFAB3682544AB4208BF00253F1B8B
:10924400A044A144F560E1D14046BDE8F8830000A4
:1092540070B5164B182400FB04451D4404FB003371
:109264001646DC6A012C0ED0022C18D0E4B928462C
:10927400FFF79FFF864204D832462846FFF7A2FF35
:109284003446204670BD2846FFF793FF8642344695
:1092940028BF044622462846FFF794FFF1E72846F4
:1092A400BDE87040FFF7AABF0024EAE79C34002021
:1092B400034B1A8882420CBF18460020704700BF37
:1092C40030350020024B9B6903B11847704700BF3B
:1092D4001435002037B50B46497A0F4A79B9D2E9DB
:1092E40001141D7A0246002D18BF21465868FDF767
:1092F40027FF78B103B0BDE83040FFF7E3BF00219A
:109304001972536933B10122ADF806008DF80420B7
:1093140001A8984703B030BD143500204B8802885B
:109324009A4212D842889A420FD380888B8840F29E
:10933400F311884294BF021A421A9A4205D808448B
:10934400984234BF0020012070470020704700007D
:109354000388122B70B5014659D004D8102B1ED0A7
:10936400112B44D070BD502BFCD12F4BC288DB890C
:109374009A42F7D1038A022BF4D186883046FFF74C
:1093840097FF05460028EDD001F1120000F0D8F84F
:1093940038BB6868FDF71CFF0028E3D009E0C37BF5
:1093A400012BDFD14FF6FF70FFF782FF054620B98E
:1093B4000420BDE87040FFF785BF1C4A8E880680F4
:1093C400002303721368C0F80A305368C0F80E30E3
:1093D40010310A30FFF7A2FF134B6872DB89002BB0
:1093E400C0D129463046BDE87040FFF773BF80887E
:1093F400FFF75EFF04460028B4D04068FDF7E8FE9E
:1094040008B1FFF75FFF4FF6FF732380AAE7868852
:109414003046FFF74DFF05460028A3D008310A3037
:10942400FFF77CFF6872DCE7143500204435002028
:1094340073B50191019C06466CB100252C46294662
:1094440001A8FDF722FF18B106EB440301349D8007
:109454000135142DF3D13046346002B070BD0000E4
:109464002DE9F04703888488112B8CB005463DD044
:109474001A2B42D0102B19D1DFF8C080D8F808304D
:10948400DB430093D8F804106846FDF72AFF0099DF
:1094940001A8FFF7CDFF0DF108090027019B9F42AA
:1094A40007D3132C12D90420FDF7C2FB0CB0BDE87E
:1094B400F08739F802AB00260136514608EB8600E6
:1094C400FDF7D9FE1D2EF7D10137E7E716482146EF
:1094D400FDF7C8FE15482146FDF7C4FEEB7B012BC2
:1094E400E4D013482146FDF7BDFEDFE70E482146D0
:1094F4000CB0BDE8F047FDF7BEBE037A0D481F2B44
:109504004FEA131521460AD9FDF7ACFE022D0A488D
:109514002146EDD00CB0BDE8F047FDF7A3BEFDF742
:10952400AAFE05482146E3E75435002050350020C3
:10953400583500205C350020603500204C35002073
:10954400008800F001007047014B1878704700BF95
:10955400C435002007B508496846FEF7EDF9019BBC
:1095640013B903B05DF804FBD3E9002090476846C3
:10957400FEF7ECF9F3E700BFBCA10200FFF7EABF76
:1095840061DF704730B5134DADF5017D4FF4FA74CA
:109594000DF1020103A8ADF80240FFF7F1FF70B925
:1095A400294601A8FEF7C8F9029B002BF0D003A8B6
:1095B400D3E90021904701A8FEF7C8F9F4E705288C
:1095C40005D00DF5017DBDE83040FDF731BB0DF54B
:1095D400017D30BDD4A10200024B1B780BB1FFF713
:1095E400D1BF7047C53500204BDF70471FB50E4C07
:1095F40001A8FFF7F9FF70B9214602A8FEF79CF90C
:10960400039B002BF4D00198D3E90021904702A8D2
:10961400FEF79CF9F4E7052804D004B0BDE8104037
:10962400FDF706BB04B010BDECA102007F2805D8ED
:10963400034A044B105C5B5C184070470020704781
:1096440004A2020084A20200A0F16103192B98BFB6
:1096540020387047A0F14103192B98BF2030704780
:109664007F299ABF017001206FF02E00704700BF60
:109674005AB10A787F2A0AD800B102600021501A30
:10968400C3E9001118BF01207047104670476FF0FE
:109694002E007047A0F16103192B98BF2038704742
:1096A400A0F14103192B98BF203070477F2805D8BB
:1096B400034A044B105C5B5C184070470020704701
:1096C40004A2020084A2020038B585680446084654
:1096D40045B122686168531C8B4208BF00208A424E
:1096E4000AD2A854E26823682AB161688B4202D284
:1096F4002146904723680133236038BD70B54D1E61
:1097040022D413681446C6B20EE0D0542368E2682B
:109714002AB16168994202D9214690472368013DE4
:1097240001336A1C23600FD0A26872B1616803F12F
:10973400010C8C4514BF304600209942E5D8013D08
:1097440063466A1C2360EFD170BD3046DFE700BF7B
:10975400C3062BD410F4007F70B514BF3026202626
:109764004D1E22D413681446F6B20EE0D05423687A
:10977400E2682AB16168994202D921469047236878
:10978400013D01336A1C23600FD0A2687AB161687D
:1097940003F1010C8C4514BF304600209942E5D8F2
:1097A400013D63466A1C2360EFD170BD70473046AB
:1097B400DEE700BF024B5B689B6809211B68184702
:1097C400B82A00200FB410B588B00AAB0D4A53F87C
:1097D400041B03936FF000400024CDE905040191BC
:1097E400079200F07DFB039A019904A800F07AF82F
:1097F400019000F077FB019808B0BDE8104004B078
:10980400704700BF69790200027862B169B100EB68
:10981400010C034601E0634503D013F8011F00293E
:10982400F9D1181A7047104670470846704700BFB0
:10983400844640EA010313F0030F18D18446202A1A
:109844000BD32DE9F007B1E8F807A0E8F807A2F177
:109854002002202AF7D2BDE8F007042A07D351F8E2
:10986400043B40F8043BA2F10402042AF7D2002A84
:1098740005D011F8013B00F8013B013AF9D16046EB
:10988400704700F1010110F0030F11D010F8012B03
:10989400002A23D010F0030F0AD010F8012B002A5D
:1098A4001CD010F0030F03D010F8012B002A15D0A0
:1098B4002DE970004FF001324FF0803350F8044B23
:1098C400A4EB020525EA04051D4000D1F6E7A0F14A
:1098D400040070BC10F8012B002AFBD1A0EB01009E
:1098E400704700002DE9F04F00230C46036089B057
:1098F40014F8011B03920746002900F0E582DFF803
:10990400DC9507E03846FFF7DFFE14F8011B002959
:1099140000F058812529F5D12246002612F8010BC2
:10992400302800F29E801F280ED9A0F12003102BAE
:109934000AD8DFE803F0AC0909A8090909A4090950
:1099440009A0099C09098D002A2840F0FC80039B8A
:1099540010781D680433002D0393BCBF6D4246F09C
:109964001006A21C2E2800F004810021742800F0A7
:1099740092807A2800F08F806C2800F032814C2885
:1099840000F03581682800F0BE811446002800F0FC
:109994008880A0F12503DAB2532A00F22B81532BDD
:1099A40000F22881DFE813F0EB01260126012601ED
:1099B400260126012601260126012601260126016B
:1099C400260126012601260126012601260126015B
:1099D400260126012601260126012601260126014B
:1099E400260126012601260126012601260126013B
:1099F400260126012601260126012601260126012B
:109A040026012601260126012601260126018200BF
:109A1400260126012601260126012601260126010A
:109A240026012601D601F60026012601260126017B
:109A3400F6002601260126012601500248021302DF
:109A440026012601ED012601CB0126012601840011
:109A540046F400761446224612F8010B30287FF6AD
:109A640062AF5E286FD146F480561446F3E746F0A1
:109A740010061446EFE746F020061446EBE746F4DA
:109A840000461446E7E746F080061446E3E746F04E
:109A940040061446DFE7144614F8010B00287FF44F
:109AA40078AF4FF0FF3009B0BDE8F08F46F40056B0
:109AB40016F0800A06D043F2780A43F25803782855
:109AC40018BF9A4616F4807307BF06F48042B04666
:109AD40026F4007806F48042002A61D1039A18F033
:109AE400040F02F104060396126800F0A08092B2FB
:109AF400002B65D028F400785838202800F29D8087
:109B0400DFE810F073019B009B009B009B009B000F
:109B14009B009B009B009B009B009B00D4009B0030
:109B24009B009B009B00D4009B009B009B009B0020
:109B34009B00090173019B009B009B009B00D400C8
:109B44009B009B007301A0F13004E3B2092B4FF09A
:109B540000053FF607AF12F8010B05EB850504EB92
:109B64004505A0F13004E3B2092BF4D92E287FF483
:109B7400FCAE10782A2840F07781039B507819684E
:109B8400941C0433002903932246FFF6EFAE46F4F7
:109B94008076EBE646F4804806F480734FF0000AC2
:109BA400039A18F0040F02F104060396126830D0E9
:109BB40012B2002A31DA52424FF02D0A002B99D109
:109BC400012199E73868BB68002B3FF46CAF7A68D1
:109BD40082427FF668AF00221A54386809B0BDE8A3
:109BE400F08F144646F0010614F8010BCEE646F059
:109BF40001061446B54BD3F80080B8F1000F3FF4CA
:109C040084AE009103A901912B4632463946C047E0
:109C14007BE618F0080FCCD0D2B218F0200F40F039
:109C24003E8118F0400F18BF4FF0200A60E718F08B
:109C3400080F3FF45DAFD2B25AE74FF0FF3600236E
:109C440021EAE17BA5EB0B05BAF1FF0FA5EB0305B8
:109C540040F20481CAF307213846023DFFF734FD80
:109C64005FFA8AF13846FFF72FFD40463A46294607
:109C7400FFF76EFD3A4659463020FFF73FFD731C4F
:109C84000AD001360DF1140A564416F8011D38465F
:109C9400FFF71AFDB245F8D118F0100F3FF435AEB6
:109CA40029463A462020FFF729FD2EE61046002AD1
:109CB40000F0068108F4004C624600238C464FF005
:109CC4002C0E114603F0030209B1032A14D01E46D8
:109CD400A9FB0032D20802EB820306F1200BA0EBB1
:109CE4004303EB44303309280BF80C3C06F1010321
:109CF40040F2D2801046E5E703F120026A445E1C7C
:109D040002F80CECE4E71078682800F0D480541CC6
:109D140046F004063AE61046002A00F0D1800DF120
:109D2400140C002302F007023032C0080CF8012B97
:109D34001E46024601330028F4D1C91A80E716F4FE
:109D4400807300F0AF8026F4007806F480424FF070
:109D5400000AC1E6039B013D191D93F8008003919D
:109D64003A4629463046FFF7F3FC41463846FFF7AA
:109D7400ABFCB3461BF0100F3FF4C7AD90E72521B1
:109D8400C0E5039B524A181D0390D3F800A0BAF112
:109D9400000F08BF9246F205D04626F4007B5046D9
:109DA40040F18580FFF730FD0646AD1B3A46294653
:109DB4005846FFF7CDFC002EDCD018F8011B3846BE
:109DC400FFF782FCAAEB0803F342F6D1D2E7039B28
:109DD4001A1D039216F0800F1A6846F480780CBF9F
:109DE4004FF0000A4FF0230A08211046002A67D0DA
:109DF40008F4005C634605AA8C460026A34619466F
:109E040009E0344B000913F80E3002F8013B06F167
:109E140001030DD01E4600F00F0E0029F1D12E4C87
:109E2400000914F80E3002F8013B06F10103F1D1E8
:109E340061465C46C91A03E716F0800F0CBF4FF069
:109E4400000A4FF0300A3DE6039B3A68191D03915E
:109E54001B6831074CBF1A701A6056E5BAF1000F3F
:109E64003FF403AF013DFBE6A0F13004E3B2092B5C
:109E740002F101024FF000013FF689AE12F8010B26
:109E840001EB810104EB4101A0F13004E3B2092BA1
:109E9400F4D946F4807669E56146C91AD0E64FF0F4
:109EA4002B0A25E606F48042B0469A4614E6FFF7EC
:109EB400E8FC064679E7507846F00806941C65E508
:109EC40013464FF0FF36BBE608467CE6C835002053
:109ED40058A4020048A4020038A40200CDCCCCCC83
:089EE400704700BF704700BF8A
:089EEC00617E0200000000008D
:109EF40065940200000000001D90020000000000B4
:089F040055930200000000006B
:089F0C00E17E020000000000EC
:109F1400DD95020000000000F19502000000000041
:109F2400102B0020D82B0020E02B0020182B002021
:049F34001800000011
:109F380032A102000000000038A102000000000069
:109F48003FA10200000000004EA102000000000036
:109F580054A102000000000043A10200000000001C
:109F680048A1020000000000F59F02000000030362
:109F78005AA10200000000002CA10200000000000D
:109F8800A6A1020000000303B3A10200000003031E
:109F9800C8A1020000000303E0A1020000000303BF
:089FA800F6A002000000000019
:109FB000C89F020000000000D49F0200982A0020E1
:109FC0000338FDD870470000D963020045640200E1
:109FD000D56302007274745F6C6F675F6261636B5C
:109FE000656E64004261636B656E647320666C75B8
:109FF0007368656400617070001B5B313B33316DC9
:10A000000025734C6F67732064726F7070656420F5
:10A010002825642925730D0A001B5B306D0025730C
:10A02000003C25733E2025733A20002025303278ED
:10A0300000202020007C002563001B5B313B333077
:10A040006D001B5B313B33326D001B5B313B3333A7
:10A050006D001B5B313B33346D001B5B313B333593
:10A060006D001B5B313B33366D001B5B313B33377F
:10A070006D007761726E696E6700696E666F00646D
:10A08000656275670000000019A002003AA0020096
:10A09000F99F020042A002004AA0020052A0020062
:10A0A0005AA0020062A002006AA0020000000000A4
:10A0B000C6A0020072A002007AA002007FA00200E7
:10A0C000466174616C206572726F720053797374AB
:10A0D000656D20726573657400000000000000006B
:10A0E0000338FDD87047303132333435363738399C
:10A0F0004142434445467077725F6D676D7400005E
:10A100000C9F02000C9F020004000000FFFFFFFFF5
:10A11000FFFFFFFFFFFFFFFFFFFFFFFF000000004B
:10A12000000000000000D60106010000636C6F63B0
:10A130006B00434C4F434B004750494F5445005030
:10A140005253005541525400554152544500534119
:10A150004144430054494D455200626C655F6E7541
:10A160007300766F6C746167653D20256620760A02
:10A1700000000000000000000200000300000000DA
:10A1800008000000060000000500000007000000B5
:10A190000000000000E0D701010006000000000000
:10A1A0000338FDD870476E72665F626C655F6761E9
:10A1B0007474006E72665F7364680000149F02001E
:10A1C000249F0200080000006E72665F7364685F7F
:10A1D000626C6500F49E02000C9F02000800000003
:10A1E0006E72665F7364685F736F6300EC9E02005B
:10A1F000F49E02000800000043000000504F534945
:10A20000580000002020202020202020206828281E
:10A21000282820202020202020202020202020202E
:10A2200020202020481010101010101010101010B6
:10A230001010101084848484848484848484101096
:10A2400010101010108181818181810101010101B3
:10A2500001010101010101010101010101010110DF
:10A260001010101010828282828282020202020288
:10A2700002020202020202020202020202020210B0
:10A280001010102000070320041702010857104087
:10A2900080000000F8A10200FCA2020010A402004D
:10A2A00053756E004D6F6E00547565005765640000
:10A2B0005468750046726900536174000000000024
:10A2C0004A616E00466562004D6172004170720025
:10A2D0004D6179004A756E004A756C0041756700E2
:10A2E000536570004F6374004E6F760044656300E1
:10A2F00000000000414D00504D00000034A4020059
:10A3000030A4020030A4020030A4020030A40200F5
:10A3100030A4020030A4020030A4020030A40200E5
:10A3200030A40200FFFFFFFFFFFFFFFFFFFFFFFF63
:10A33000FFFF000070A30200A0A20200ACA3020075
:10A34000C0A20200F4A2020054A3020004A402006E
:10A3500060A30200256D2F25642F257900000000E1
:10A3600025612025622025652025542025590000DF
:10A3700053756E646179004D6F6E64617900547538
:10A380006573646179005765646E65736461790013
:10A39000546875727364617900467269646179000A
:10A3A0005361747572646179000000004A616E75D2
:10A3B000617279004665627275617279004D6172F1
:10A3C000636800417072696C004D6179004A756E76
:10A3D00065004A756C790041756775737400536543
:10A3E0007074656D626572004F63746F62657200B0
:10A3F0004E6F76656D62657200446563656D62657A
:10A400007200000025483A254D3A2553000000000F
:10A41000319602004D96020059960200B196020054
:10A4200099960200A59602006596020075960200B4
:10A43000000000002E000000303132333435363752
:10A4400038396162636465663031323334353637AA
:0FA450003839414243444546286E756C6C2900EB
:10A4600000000000FF00000000000000002000408D
:10A470000000000000200040000000000090D00319
:10A4800094A2020094A2020094A2020094A20200EC
:04A4900094A2020090
:040000032000637501
:00000001FF
