:020000022000DC
:1060000000000120756302005D6302005F6302000F
:106010006163020063630200656302000000000028
:1060200000000000000000000000000067630200A4
:1060300069630200000000006B6302006D630200F0
:10604000CD8502006F630200158A02006F630200B3
:106050006F6302006F6302009D8802006F6302009D
:106060006F6302006F6302006F6302006F630200E0
:106070006F6302006F6302006F6302006F630200D0
:106080006F630200F97002006F6302006F63020029
:10609000957102006F630200E9A902006F630200BC
:1060A0006F6302006F6302006F6302006F630200A0
:1060B0006F6302006F630200000000000000000038
:1060C0006F6302006F6302006F6302006F63020080
:1060D0006F6302006F6302006F6302000000000044
:1060E00000000000000000000000000000000000B0
:1060F00000000000000000000000000000000000A0
:10610000000000000000000000000000000000008F
:10611000000000000000000000000000000000007F
:10612000000000000000000000000000000000006F
:10613000000000000000000000000000000000005F
:10614000000000000000000000000000000000004F
:10615000000000000000000000000000000000003F
:10616000000000000000000000000000000000002F
:10617000000000000000000000000000000000001F
:10618000000000000000000000000000000000000F
:1061900000000000000000000000000000000000FF
:1061A00000000000000000000000000000000000EF
:1061B00000000000000000000000000000000000DF
:1061C00000000000000000000000000000000000CF
:1061D00000000000000000000000000000000000BF
:1061E00000000000000000000000000000000000AF
:1061F000000000000000000000000000000000009F
:10620000354936480A1A02D0072291438D4634494F
:1062100034480A1A06D00722914381F309880222E2
:1062200082F3148830483149314A00F044F831484B
:106230003149324A00F03FF831483249324A00F0E1
:106240003AF832483249334A00F035F83248334997
:10625000334A00F030F833483349344A00F02BF821
:1062600033483449344A00F026F83448344900228F
:1062700000F02CF833483449002200F027F8334866
:106280003349091A082902DB002202604160314AC1
:1062900090471F481F49884205D00268043003B464
:1062A000904703BCF7E700208646EC46002000211B
:1062B000294A9047FEE7884207D0521A05D0037852
:1062C00001300B700131013AF9D17047884202D098
:1062D00002700130FAE770470000012000E0002062
:1062E000000001200000012088C50200982A00203B
:1062F000242B0020D4630200D46302004CB70200B8
:1063000088C50200982A0020982A002010B80200B0
:1063100010B8020010B8020010B8020010B8020055
:1063200010B8020010B8020010B8020087C50200C1
:1063300014C60200242B0020242B0020242B002034
:1063400088390020883900208839002088390020C9
:10635000885900209D630200F9980200FEE7FEE7DD
:10636000FEE7FEE7FEE7FEE7FEE7FEE7FEE7FEE705
:10637000704700BF1048804710484FF0070188431E
:1063800085460F4880470F48016841F4700101605D
:10639000BFF34F8FBFF36F8FFFF732BF0A480B4930
:1063A0000B4A884207D0521A05D0037801300B708F
:1063B0000131013AF9D170477163020000000120F8
:1063C0001180020088ED00E010B80200982A002039
:0463D000982A0020E7
:1063D4007047000007B5044B0093044A402300F0C3
:1063E40032F803B05DF804FBF5630200252B0020AE
:1063F4002DE9F84388461446B2B10F4B0F4E0325DE
:10640400002743F00109224608EB0701002003F0AE
:1064140085FE0744241A48B933782BB14FF47A40E7
:10642400C847013D02D13570BDE8F88301233370BC
:10643400002CE8D1F8E700BF10B80200242B00209C
:10644400704703F09BBEF0B595B01D46164608464E
:106454000C4601F0E9FB1A9B0D93CDE90865002574
:106464002B46082205A920460A958DF82C500C9538
:1064740001F0F6FB079B0293069B03939DF81430EF
:106484008DF8115003F00302012A1DD1BDF8142028
:10649400059DC3F3C203C2F383168DF81030B20016
:1064A40008230EA9204601F0DBFBC5F3952508ABB4
:1064B4000093324602AB0EA9284600F05BFB20464F
:1064C40001F0B6FB15B0F0BD022AF8D1BDF81650A4
:1064D400C3F3C203C5F389158DF810300827082DBE
:1064E4002E4628BF08263B4632460EA9204601F018
:1064F400B7FBAD1B08AB02AA31460EA8374400F027
:106504009DFB002DEBD1DAE708B5FFF79AFF0448AD
:10651400042100F099FA034B01225A7108BD00BF0F
:1065240000B80200982A0020037813F0040216D061
:1065340003F00303012B03D0022B09D00120704781
:106544000A6800880232C0F3831002440A60F5E747
:106554000B684288023303EB92130B60EEE710469C
:10656400704700002DE9F04FDFF830A187B00F46E7
:1065740000230446861C0DF1070015468DF80730EC
:1065840000F0FCFFDAF800103960DAE90132134454
:1065940001335B1A0AF21C470AF583690AF21448AC
:1065A400B3421CD30020002D73D004F00F039B01D1
:1065B40043F0050363F30F00DAF80020DAF808303B
:1065C4001340033332444AF823009DF80700CAF805
:1065D400002000F0F7FF012007B0BDE8F08F012193
:1065E400384601F050F8484601F065F8404601F09D
:1065F40062F8DAF80400DAF808B0029000EA0B0056
:1066040003300AEB800002A9FFF78EFF029B50BB08
:106614000BEA03020AEB820203F1020CD268039232
:10662400013303EA0B0B0AEB8B0B02F00302012A82
:10663400DBF80C10CDF808C023D0022A16D083460C
:10664400404601F03BF810B1029BCAF804305946A9
:10665400384601F018F8DAE901231344DAF8002087
:1066640001339B1A9CE70BEA0300C9E7BDF80E301F
:10667400C3F3891303334FEA114B0CEB93030293D7
:10668400DEE7BDF80C30C3F383134FEA114B6344C8
:10669400F5E7A40544F006008EE700BF382C00207F
:1066A4000B4B0C48FF2210B59A600022C3F8182443
:1066B400C3E90022C3F8142483F8202401F06DFAFE
:1066C400044610B9044801F015FB204610BD00BF74
:1066D400382C002084B702004CB8020030B50A4CB4
:1066E40071B10A4A0A49121BD20800239A4201D105
:1066F400002030BD31F82350854202D00133F5E744
:10670400034654F83300F4E798B7020000B80200D7
:10671400982A0020094B013903EBC000032909D84A
:10672400DFE801F00A02040604207047007970478C
:1067340040797047002070470220704798B70200E4
:10674400034BD3E90030C31A58425841704700BF85
:10675400382C00202DE9F04387B0FFF7F1FF0646FF
:10676400002840F0FE80804CC4F81804BFF34F8F1B
:106774006368A56802932B40033304EB830002A9EA
:10678400FFF7D2FE029B18B1D4F81824002A62D075
:1067940005EA0302991C013304EB82022B4004EB4B
:1067A4008303D268DB68049302F00303022B039291
:1067B400029163D1BDF80E306C48C3F38917502F92
:1067C400B84628BF4FF0500808F1080168F38F134A
:1067D400C1F30901ADF80E3001F0F7F906460028BF
:1067E40000F0AA8001F020FA0023082203A9304611
:1067F40001F02CFA029925EA01020132B8EB820F6A
:106804004FEA820333D95FFA88F863B32940DDB2D3
:10681400A8EB050803315FFA88F9A846544D04EB48
:10682400810108234246304601F010FA3DB108F1D7
:106834000803DBB24A462946304601F007FA029BB8
:10684400033703EB97070297D4F81834002B4BD186
:10685400D4F810545BE0226893428CD362603046D3
:1068640007B0BDE8F08342491D469946D9E729405F
:1068740003310823424604EB8101DDE7012B5BD1A0
:10688400BDF80C303948C3F38311062928BF06210B
:1068940061F38913023101F00F018900ADF80C3066
:1068A40001F093F90646002846D001F0BDF9002313
:1068B400082203A9304601F0C9F90027BDF80C20CD
:1068C400C2F38312BB00974203F10803BCD20299BE
:1068D4004A1C29400331029204EB81010422304610
:1068E40001F0B4F90137E9E7304601F0A1F9FFF707
:1068F40027FF80F00100C6B2B1E7EB685B7923B1F2
:106904002B6831461B6828469847EB681D68002DA4
:10691400F3D1304601F08CF90DF107008DF80750E2
:1069240000F02CFED4F818340BB9029B63609DF878
:10693400070000F047FEDAE7D4F8104454B90D4BD1
:106944000D480E49C01AC008000440F0020000F0CF
:1069540063F8CCE7236820469B689847E3681C6883
:10696400ECE700267BE700BF382C002084B7020048
:10697400442C002098B70200C0B7020034B80200CB
:106984002DE9F74F224E04460F46924601A90122F3
:106994001846D6F808909B46FFF7E4FD20B3019D06
:1069A4004FF00008AA1CD84508EB020126D119486B
:1069B400002100F039FE80F31000000440EA144086
:1069C400E4006B1C04F0380403EA090305EA090532
:1069D40044F0010406EB8303033544EA881444EAD3
:1069E4008724D86046F8254096F820341BB1FFF779
:1069F400B1FE0028FBD103B0BDE8F08F09EA010124
:106A040006EB81015AF82830CB6008F10108CAE787
:106A1400382C00205430002000231A46FFF7B0BF62
:106A240007B50123019201AAFFF7AAFF03B05DF89D
:106A340004FB07B5CDE9002302236A46FFF7A0FF54
:106A440003B05DF804FB000030B50F4CD4F81024FB
:106A540003460020114631B9D96808714AB9C4F80F
:106A640010340A6030BDC9680D79854206D00968C2
:106A7400F1E7D26814680C601360F3E701300A2868
:106A8400E8D14FF0FF30EDE7382C002038B5084B43
:106A94000125D3F8104483F8205404B938BDE368C1
:106AA4005D71236820465B689847E3681C68F4E7D7
:106AB400382C002030B5C38885B004460D4633B168
:106AC400144A00921449154A284600F05AFE217AC5
:106AD40005291DD0637A4BB1A088FFF71BFE104B2C
:106AE400104953F82020284600F04BFE227A0E4B22
:106AF400A08853F8222003920021FFF7EFFD039AA8
:106B04000A490346284605B0BDE8304000F039BEC6
:106B140005B030BD78B8020060B8020058B8020071
:106B2400E4B802007FBF020008B902007DB8020089
:106B340007B503460846197A052911D05B7A2BB1AB
:106B4400094A0A49019000F01CFE01980849019085
:106B540000F017FE019803B05DF804EB00F006BEE8
:106B6400002AF8D0F2E700BF78B802007FBF020025
:106B740011BF02002DE9F04385B01F460C9D002390
:106B840095F80C902B7306460C46904629463846D9
:106B9400FFF790FFB8F1060F09D8DFE808F00412F8
:106BA400181F283340003146284600F0EAFD002231
:106BB40029463846FFF7BCFF85F80C9005B0BDE8C0
:106BC400F08322683146284600F0DBFDEFE7D4E984
:106BD40000233146284600F0D4FDE8E7A36800937B
:106BE4003146D4E90023284600F0CBFDDFE7E36813
:106BF4000193A36800933146D4E90023284600F0AA
:106C0400C0FDD4E723690293E3680193A36800936A
:106C14003146D4E90023284600F0B3FDC7E7636991
:106C2400039323690293E3680193A36800933146B5
:106C3400D4E90023284600F0A4FDB8E708292DE98B
:106C4400F74F80460E4617461C463DD800251B7B51
:106C54002573214610460193FFF72CFFDFF88CA023
:106C6400DFF88CB0AE4232D918F8052059462046D8
:106C740000F087FD0135082DF4D11B49DFF874A01D
:106C8400DFF874B0204600F07CFD4FF000094E455B
:106C940024D918F809507E2D1ED8284604F036F958
:106CA400002814BF2A462E225946204600F069FDCA
:106CB40009F10109B9F1080FE9D101222146384649
:106CC400FFF736FF019B237303B0BDE8F08F5146F5
:106CD400204600F056FDCDE72E22E5E7514620463A
:106CE40000F04FFDE4E700BF91B802008DB8020048
:106CF40087B802008FB8020093B802002DE9F84F5C
:106D04002F4F304E4FF000082F4B1B785FFA88F559
:106D1400AB4201D8BDE8F88FD7F8009019F83500D8
:106D24000124A0F12002C0F1200304FA02F224FAA3
:106D340003F31343D6E9001204FA00FC01EA0C0B36
:106D440002EA030E5BEA0E0E09EBC50A35D021EA0E
:106D54000C0122EA0303C6E9001301F093FD024685
:106D640019F83500194DA0F12003C0F1200124FACF
:106D740001F104FA03F30B43D5E900C1C0F1200586
:106D84000B40A0F1200122FA05F5844002FA01F13A
:106D9400294304EA0C0402FA00F58B4208BFAC4212
:106DA4000BD1DAF8043043B19AF801104C1E614259
:106DB40061418D1A69426941984708F10108A3E7C6
:106DC4003031002028310020F43000202031002010
:106DD400F8B507461E4800F0C1FBB8BB01251D4E9F
:106DE400A7F12004C7F1200325FA03F305FA04F4FC
:106DF4001C43D6E90023BD4002EA050003EA04016E
:106E040001431DD1384601F03DFD134BD3E9001277
:106E140088B129432243C3E90012D6E900232A4357
:106E24002343C6E900230D4B094819680022BDE835
:106E3400F84000F04BBB21EA050122EA0402EAE72C
:106E440022EA050223EA0403C6E90023F8BD00BFD1
:106E5400FC3000202831002020310020F8300020B0
:106E6400042A2DE9F34105460C4616463BD901F0A8
:106E740041FCE8B11D4B1E491D601E4BDFF88880A4
:106E84001C701D4B00221E600023C1E900231B4916
:106E9400C1E90023013CE4B200260327FF2C0ED1F4
:106EA400174A1848002102B0BDE8F04100F0FCBACE
:106EB40001F0F0FB0028DDD002B0BDE8F08105EB65
:106EC400C40315F834009B788DF80660424601A986
:106ED4008DF804708DF8053001F016FC013CE4B225
:106EE4000028DBD0E8E70720E6E700BF30310020C8
:106EF40020310020F4300020F83000202831002018
:106F0400016D02001CB90200D56D020070B5084D78
:106F1400084E00242B789C4201D3002070BD3368B6
:106F2400012113F8340001F067FC0134F2E700BFDB
:106F3400F4300020303100201FB50021039001AA55
:106F440044F20100CDE9011100F004F805B05DF848
:106F540004FB000038B572B6FFF798FDFFF7FAFBA3
:106F64000028FBD1104B114C114D1249E41AE408CE
:106F7400240444F00100FFF74FFDD5F8F030DB079F
:106F840000D500BE0C4944F00200FFF745FDBFF3F5
:106F94004F8FEA68094B02F4E0621343EB60BFF3DE
:106FA4004F8F00BFFDE700BF98B70200C0B70200D3
:106FB40000ED00E020B902002CB902000400FA053B
:106FC40049B152B1531E1A4007D1826001608380D7
:106FD400C260104670470E2070470920704710B5F4
:106FE4008468C2688388121B934208D3C268134022
:106FF4000268D154C3680133C360002010BD04206B
:10700400FCE78268C3689A420AD082688388134086
:107014000268D35C0B70836801338360002070477F
:1070240005207047094B5A7899780132D2B29142BF
:1070340008BF0022197891421FBF027058781822A5
:1070440002FB003014BF04300020704734310020AC
:1070540073B5054600240DF107000E468DF8074070
:1070640000F08CFA0DF10600FFF7DCFF90B106701A
:10707400094B9DF8062045605A709DF8070000F002
:10708400A1FA24B9054B4FF48012C3F8002120461D
:1070940002B070BD0424F0E73431002000E100E0C8
:1070A400024B4FF43C6043F00103184740B902001F
:1070B40038B50C4B0C4C4FF40032C3F8802001253A
:1070C4004FF48033C4F84833C4F808336560FFF7DD
:1070D400E7FF064BA56000241C60FFF7E1FF044BAB
:1070E4001C7038BD00E100E0001001405032002067
:1070F40041320020F8B51F4B1F491B680025C1F819
:107104004051C1F84451C1F84851C1F84C51C1F83B
:107114000051C1F804514BB3D1F80445174909682B
:10712400641A24F07F442F461A68A24209D8A41A8C
:1071340015441A7CDE691AB1D3E905201F749047FF
:10714400AEB90F4A0F4B11781B788B4205D101332E
:10715400DBB2022B08BF0023137012780A4B43F8EA
:1071640022500A4B4FF48012C3F80021F8BD334675
:10717400DAE700BF543200200010014050320020F2
:107184004D3200204C3200204432002000E100E067
:107194002DE9F04FA14AA24913780978A14D9942EB
:1071A40085B03CD00133DBB2022B08BF002313703F
:1071B4009D4912789D4B0F6853F822003B1823F029
:1071C4007F4300220B602B6816461446944613B97D
:1071D40042B12B6006E0196881420ED902B12B60DE
:1071E400091A196001272B68DFF848A201934FF0B0
:1071F4000008BEB9DFF844B260E0401A0C44D96814
:10720400D3F81CE0C3F800C031B13A1922F07F4230
:10721400C3E90121DE611E4673460122D7E7002639
:107224003746E0E73446F6697F4B60681B68DFF851
:1072340010C2A168C21A22F07F42624500F2A68001
:107244000A442260012222742A680023C4E901331B
:10725400E361002A40F0A3802C60CAE79BF8021087
:107264005A1CD2B291428BF8002004BF00228BF842
:107274000020182202FB03B32A6819799C680229AA
:1072840075D003297FD0012918D1207CB0B9D3E966
:107294000312A2605A69E2609A69654BA2611A7886
:1072A400002A18BF01466160BEE78C4200F094805A
:1072B4008946C9690029F8D1002323749BF800305A
:1072C4009BF801209A42C9D12B68B8F1000F04D170
:1072D400019A9A4201D1002F43D0002B79D0D3F8E0
:1072E40000A0544D504BD5F804751C68DFF8548148
:1072F4003E1B98F8003026F07F4603369BB94FF4C6
:107304008033C5F84433C5F804334B4B4FF4003293
:107314004FF00109C3F880211A60C5F80090FFF707
:10732400BFFE88F80090B2452CBF5444A41924F041
:107334007F44C5F84045D5F80435DB1B23F07F4373
:10734400E41B033324F07F44A3420AD9D5F804355F
:10735400C5F84035FFF7A4FE374B4FF40032C3F8AD
:107364000021334B00221A7005B0BDE8F08F11469E
:1073740091469FE71174D2690123002AFAD1002BA8
:107384009CD02A609AE700231946F6E71B1A23F0DB
:107394007F438B4234BFCB1A0023236052E721681A
:1073A4001368994213D85B1A1360E26154E7091A0F
:1073B400D8691A4638B1034618688842F7D3401A88
:1073C4001860184613462160E061DC6111E713463A
:1073D400F2E7FFF76DFEC4E74C4511D1D3692B608A
:1073E40073B9DFF844E00120CDE90212CAF80800BD
:1073F400CEF800300E4B1870FFF752FEDDE9021292
:107404000B68C969C9F81C1011B1086803440B6002
:107414002B68934218BF4FF001084DE74C3200200F
:107424004D320020543200205032002044320020DB
:10743400403200200010014000E100E0343100201F
:10744400FEFF7F004132002008B5FFF731FE104BEC
:1074540000200B2218809A700E4B18600E4B187087
:107464000E4B18700E4B4FF48012C021C3F88021CC
:1074740083F814131A6002F18042A2F56F22C2F855
:10748400080583F81113074BD2F804251A6008BDC8
:1074940034310020543200204C3200204D32002080
:1074A40000E100E050320020074B9B784BB132B131
:1074B40028B10368187C20B959745A6170470720B1
:1074C40070470820704700BF343100202DE9F7438E
:1074D400DFF8848098F8023005460E461746ABB3B1
:1074E400A0B3042930D9436983B3437C0024012B1E
:1074F4000DF107000CBF8946A1468DF8074000F046
:107504003DF80DF10600FFF78DFDD8B1012303709E
:107514000F4B4560D3F80435C0E90497C0E902363F
:107524009DF8063088F801309DF8070000F04AF80D
:1075340024B9084B4FF48012C3F80021204603B04D
:10754400BDE8F0830424EFE70724F7E70824F5E710
:107554000010014000E100E034310020064A927836
:107564003AB130B1426922B1002202740221FFF71C
:107574006FBD0820704700BF3431002070B5EFF3B1
:10758400108672B60C4A946801239CB993600B4B25
:107594000B4DD3F8801029401160C3F88050D3F804
:1075A400841051604FF0FF32C3F88420047006B990
:1075B40062B670BD0370FAE75832002000E100E0C3
:1075C400FC06FFBD084B9A6810B55AB150B9EFF3E9
:1075D400108172B6054A1C6814605C685460986037
:1075E40001B962B610BD00BF5832002000E100E0CE
:1075F40001F01F024B090121914000EB830000F0D0
:107604001EB801F01F0301229A404B0900EB8300CE
:10761400D14300F02CB84B0901F01F0150F82300AE
:10762400C84000F00100704710B5034653E8000F4E
:107634000A4643E8002494F0000FF7D110BD10B5BA
:10764400034653E8002F42EA010043E8000494F0A3
:10765400000FF6D110BD10B5034653E8000F00EA41
:10766400010243E8002494F0000FF6D110BD10B5D8
:10767400034653E8002F02EA010043E8000494F0B3
:10768400000FF6D110BD10B5034653E8002F02EBEE
:10769400010043E8000494F0000FF6D110BD10B5CA
:1076A400034653E8002FA2EB010043E8000494F0E2
:1076B400000FF6D110BD0121FFF7C1BF0021FFF774
:1076C400CABF10B590B1D0E9012301689B1ADBB29F
:1076D4000A60013BDBB2FF2B026802D1002010716B
:1076E40010BD11684C1C14600B70F2E70E20F7E714
:1076F40037B5054600240DF107008DF80740FFF764
:107704003DFF2A686B68116899420ED9481E1060C3
:1077140011F8013CEC68298A01FB0344AB68117938
:107724001B1ADBB2994238BF13719DF80700FFF7AB
:1077340049FF204603B030BD37B5054600230DF19F
:1077440007000C468DF80730FFF718FF2A68136806
:10775400591C1160E968641A298AB4FBF1F41C709D
:107764009DF80700FFF72EFF03B030BD826810B507
:1077740004462AB143690168006998470023A3605D
:1077840010BD0EB403B5039921B104AB01AA019352
:1077940000F076F802B05DF804EB03B070470A29F4
:1077A40038B504460D4602D10D21FFF7F8FFA36852
:1077B4002268591CA160D554D4E901329A4204D3F9
:1077C4002046BDE83840FFF7D1BF38BD2DE9F84F5A
:1077D4009846DDE90A43154682460F460A464FF0AD
:1077E4000109AA420FD2C14538BFC14613F0010BAB
:1077F40001D16CB900240126B8F1010F1BD908F19D
:10780400FF386E43F8E709F10109B2FBF5F2E8E746
:107814009B070ED5B8F1000F0CBF30262026A145DA
:10782400E9D2013C31465046FFF7B9FF002CF6D1AE
:10783400E0E72026F3E7B7FBF6F39D42E1D9DFF852
:107844003C80B7FBF6F3504618F8031006FB137799
:10785400FFF7A5FF3346AB42B6FBF5F6F1D2BBF119
:10786400000F02D00CB1A14501D3BDE8F88F20214F
:107874005046013CFFF793FFF4E700BF46B902000E
:107884002DE9F74F054617468846002900F03E814A
:1078940018F8011B49B92B7B002B00F037812846CF
:1078A40003B0BDE8F04FFFF761BF252940F0B78072
:1078B400002698F800302D2B424608F1010823D009
:1078C400302B24D02B2B25D000242A2B02F10101AC
:1078D40023D13B681A1D1B683A601C440A4613787E
:1078E4002E2B26D101324FF0000A104610F8011B4E
:1078F400A1F1300CBCF1090F1DD80A2303FB0A13B4
:10790400A3F1300A0246F0E746F00106D1E746F05B
:107914000206CEE746F00406CBE711F8013CA3F1DA
:1079240030000928DBD80A2202FB0434303C0A4622
:10793400CBE74FF0000A12F8011B01F0FB006828A6
:107944009046F8D0782909D86F290CD8632962D0D9
:1079540022D8252963D0582900F0888098F800306F
:10796400002B95D197E770390829F7D801A353F86C
:1079740021F000BFEB7A0200617902006179020014
:10798400817A0200617902005F7A02006179020063
:1079940061790200717A0200642901D06929DDD17C
:1079A4003A68D2F80090111D89EAE9723960A2EBB5
:1079B400E9724FF0010B092A35DCD34538BFD346B1
:1079C4002CB1B9F1000F01DB720700D5013CB307FC
:1079D40002D5BAF1000F03D0F00701D44CBB002448
:1079E400B9F1000F2DDAC9F100092D212846FFF75E
:1079F400D6FE06F00302022A04D1BAF1000F01D127
:107A04001CBB0024CDE9004653460A2249462846B9
:107A1400FFF7DCFEA2E73B681A1D19783A60284696
:107A2400FFF7BDFE9AE70A230BF1010BB2FBF3F259
:107A3400C1E7A345D4D220212846013CFFF7AFFE7D
:107A4400CCE77107D5D52B21D0E7A345DAD2302175
:107A54002846013CFFF7A3FED2E73968CDE900468A
:107A64000A1D3A6053460A220968D0E739680A1D9C
:107A74003A60CDE9004653461022F5E73B681A1DEB
:107A84003A6016F00106D3F8009024D1B9F1000F42
:107A940003D0484603F026FB0646B4421DD809F13C
:107AA400FF3919F8011F00293FF458AF2846FFF7A2
:107AB40076FEF6E728460136FFF771FE19F8061040
:107AC4000029F7D1A642BFF449AF20212846013C42
:107AD400FFF765FEF6E70026F0E720212846013C83
:107AE400FFF75DFED9E73B681A1D3A60302128464E
:107AF4001C68FFF754FE78212846FFF750FE002249
:107B04000823CDE900322146102280E703B0BDE806
:107B1400F08F00BF2DE9F84FB0F806A04579D2F8F0
:107B240000B09DF828900AFB05F5043D88460BEB50
:107B34000301A94203F1040488BFA5EB030BB4FBC2
:107B4400FAF607460AFB1644C2F800B04EB9AAEB8F
:107B540004055D4528BF5D46BBF1000F04D1BDE8B7
:107B6400F88F3F68013EF1E7043408EB06003C441B
:107B74002A46B9F1000F0DD02146ABEB050B03F0FB
:107B840033FADA452E443F6855464FF0000428BFC7
:107B94005D46E1E701462046EFE7FFF792BDF8B501
:107BA40046790146721E0546002393422D6803D38D
:107BB4000024A64202D8F8BD0133F6E70F68284630
:107BC400FFF7BAFD01343946F3E72DE9F843068A95
:107BD400CD1C0746FFF78CFD043E35440446B5FB37
:107BE400F6F5F0B14FF48073EDB28380C680013DA9
:107BF400076081464FF00008A84512D23846FFF7C7
:107C040077FD064648B163790133637108F10108D1
:107C1400C9F8000007608146EEE72046FFF7BFFF82
:107C240034462046BDE8F88301210430FFF72BBD1C
:107C340010B5012104460430FFF731FDC0B220B96C
:107C44002046BDE81040FFF7AABF10BD1FB5039240
:107C54000022009203AAFFF75DFF05B05DF804FB64
:107C64001FB503920122009203AAFFF753FF05B048
:107C74005DF804FB41DF7047064B10B500241C700F
:107C8400054B1C60BFF35F8F0449054800F03BF8C7
:107C9400204610BD6C3200207032002060B9020012
:107CA4006432002007B500230DF107008DF807307A
:107CB400FFF764FCF1EE103A23F09F03E1EE103A73
:107CC400BFF35F8F0A4B4022C3F884219DF807005D
:107CD400FFF778FC02F06CFE20B103B05DF804EB12
:107CE400FFF7C8BF20BF40BF20BF03B05DF804FB4F
:107CF40000E100E0836800225A60C3E904229A602C
:107D0400DA601A6070470B684A684360934208BFA0
:107D14000023016008BF43607047436843B10268B1
:107D2400916852680B449342436004BF002343604C
:107D34007047000010B50D49A1F59472914201D825
:107D440000200FE08C1AE30F03EBE4035B1002EB5B
:107D5400C30452F83330834205D802D204F1080236
:107D6400ECE7606810BD2146E8E700BF64BE02008E
:107D740008B5FFF7DFFF024B002808BF184608BD0F
:107D840026BD020010B50446C0B200F0E7F8204654
:107D940010BD00000648074A03780749D35C012256
:107DA40013B1043001F078BA0C3001F05BB800BFB5
:107DB400A02A0020BC3200209C3200200648074A3A
:107DC40003780749D35C012213B1043001F01CBAD3
:107DD4000C3000F0F9BF00BFA02A0020BC32002004
:107DE4009D32002037B50578012D0DD0022D2ED0FF
:107DF40005BB1E491E48FFF704F9002832D103B021
:107E0400BDE83040FFF7DABF43681A4C19782046C2
:107E1400FFF7E5F880B18DF800500190164B6846E5
:107E24001B689847A168E368A2885B1A9A420AD340
:107E3400FFF7B0FF03B030BDA268E3689A42F1D007
:107E44008DF80000EAE70D4B01221A70F2E7C368CF
:107E54008DF800500193FFF79DFF074B68461B68A0
:107E64009847E7E703238DF80030F6E79D320020BA
:107E74008C320020783200207432002088320020B6
:107E8400F0B51F46234B89B004461A600D460029FD
:107E94003DD08A8820480968FFF792F8002834D139
:107EA400AA89A9681D48FFF78BF800282DD11C4E1C
:107EB4000FCE6D460FC596E80F0085E80F00636985
:107EC4000693237C174A18488DF81C70003B18BF92
:107ED40001238DF81430637C002B14BF0E23002380
:107EE4008DF81530E3680293A36803932368019324
:107EF40069466368009300F001FB30B90B4B1870BE
:107F04002368013301D0FFF745FF09B0F0BD072016
:107F1400FBE700BF74320020783200208C3200204E
:107F240064BE0200E97D0200A02A002088320020FD
:107F340070B5084D014608482E78FFF762F80446EC
:107F440036B100232B70FFF725FF08B1FEF7F4FFCD
:107F5400204670BD883200207832002010B50146DA
:107F64000E48FFF73CF80446A8B90D480D4A0378BB
:107F7400D35C63B1043001F03BF960B90A490748A6
:107F8400FFF73FF838B9BDE81040FFF717BF0C30D2
:107F940000F00EFFF1E7204610BD00BF8C32002038
:107FA400A02A0020BC3200209D3200204FF07043F4
:107FB40093F8E02F062A10D1D3F8E42F12070CD13E
:107FC400D3F8E80F00F0F003302B08D000F0E00005
:107FD400A0F14003584258417047002070470120E7
:107FE40070474FF0704393F8E02F062A0CD1D3F872
:107FF400E42F120708D1D3F8E80F00F0F000A0F145
:1080040030035842584170470020704708B5FFF7C5
:10801400CDFF40B14FF08053884AD3F82433C3F3E3
:108024000423C2F84035FFF7DCFF10B1844B854AC6
:108034005A67FFF7BBFF48B14FF080534FF08042BF
:10804400D3F84432C3F34233C2F83C35FFF7C9FFD7
:1080540030B17D4AD2F8FC3023F08073C2F8FC3092
:10806400FFF7A4FF40B14FF080430022C3F80C2176
:10807400C3F81021C3F83825FFF7B3FF20B14FF040
:1080840080430322C3F8A025FFF7ABFF60B16F4B19
:108094000522C3F810260122C3F888260022C3F85B
:1080A40018263F22C3F814264FF0704393F8E02FAC
:1080B400062A50D1D3F8E42F11074CD1D3F8E83F66
:1080C40003F0F003502B46D14FF08052604BD2F8AE
:1080D4000414C3F82015D2F80814C3F82415D2F8F0
:1080E4000C14C3F82815D2F81014C3F82C15D2F8C0
:1080F4001414C3F83015D2F81814C3F83415D2F890
:108104001C14C3F84015D2F82014C3F84415D2F84F
:108114002414C3F84815D2F82814C3F84C15D2F81F
:108124002C14C3F85015D2F83014C3F85415D2F8EF
:108134003414C3F86015D2F83814C3F86415D2F8AF
:108144003C14C3F86815D2F84014C3F86C15D2F87F
:108154004424C3F87025FFF729FF48B14FF080533A
:108164004FF08042D3F8583203F04F03C2F8E43E94
:10817400FFF71CFF48B14FF08043D3F80024D20727
:1081840044BF6FF00102C3F800244FF08053D3F8CA
:108194003021062A0AD1D3F83431062B01BF2D4AE7
:1081A400D2F83C3743F48063C2F83C37264AD2F80D
:1081B400883043F47003C2F88830BFF34F8FBFF3A5
:1081C4006F8F4FF01023D3F80022002A03DBD3F87B
:1081D4000432002B2EDA204B0122C3F80425D3F8F5
:1081E4000024002AFBD04FF010221521C2F80012FF
:1081F400D3F80024002AFBD04FF010231522C3F833
:108204000422154BD3F80024002AFBD00022C3F823
:108214000425D3F80024002AFBD0BFF34F8F0A496A
:108224000E4BCA6802F4E0621343CB60BFF34F8F76
:1082340000BFFDE70A4B0B4A1A6008BD003001403D
:1082440000C007400DF0ADBA00ED00E00050004062
:1082540000C000400010004000E001400400FA05A6
:10826400B42A00200090D003054A4FF0A043105CCC
:10827400D3F8043523FA00F0C04300F0010070473E
:1082840084BE0200044B1A5C012393404FF0A042C9
:10829400C2F80C35704700BF84BE0200044B1A5C60
:1082A400012393404FF0A042C2F80835704700BF45
:1082B40084BE020008B50020FFF7F0FF0120FFF79D
:1082C400EDFF0220FFF7EAFFBDE808400320FFF7B7
:1082D400E5BF08B50020FFF7D5FF0120FFF7D2FF67
:1082E4000220FFF7CFFFBDE808400320FFF7CABF15
:1082F400074A4FF0A041105CD1F8043501228240B6
:1083040022EA03001340C1F80805C1F80C35704790
:1083140084BE02000D2809D00E2809D00F2809D0E8
:1083240010280CBF03204FF0FF3070470020704727
:108334000120704702207047C20708B501460CD5DA
:108344004FF0A0430322C3F84427C3F84827C3F8D7
:108354004C27C3F85027FFF7ADFF8B070AD54FF022
:10836400A0430C22C3F83427C3F83827C3F83C27AA
:10837400C3F8402708BD000038B5074C051E04F1BA
:10838400080318BF1C4623682BB11A6822605B6877
:1083940028469847F7E738BDA832002020B9054B96
:1083A40001225A70FFF7E8BF012802D1014A9070F8
:1083B400F8E77047A032002020B9034B01225A701D
:1083C400FFF7DABF704700BFA032002038B50B4C6E
:1083D400237883B90A486360A3602361E36000F0F3
:1083E400CBF8054602F0E4FA08B900F0D1F801230D
:1083F4002370284638BD8525FBE700BFA032002046
:10840400A183020037B50B4C00230DF107008DF852
:108414000730FFF7B3F8E368013BE360E56815B99B
:1084240000F0C8F8A5709DF80700FFF7CBF803B07B
:1084340030BD00BFA0320020012813B508D00328A6
:108444001CD018B9114B0122C3F8802002B010BD12
:108454000F4C00230DF107008DF80730FFF78EF85D
:1084640023780BB9FFF7B2FFE3689DF807000133E7
:10847400E3600123A370FFF7A5F8E7E700F088F8AD
:1084840002B0BDE81040FFF7BDBF00BF00E100E04F
:10849400A03200201FB503788DF8003043680193A3
:1084A40083688DF80830C368054A0393054B684612
:1084B40053F8213052F82110984705B05DF804FBB9
:1084C400B4320020B83200201FB503788DF8003094
:1084D4004368019383688DF80830C368054A0393A1
:1084E400054B684653F8213052F82110984705B0DF
:1084F4005DF804FBB4320020B8320020F0B5194B0B
:1085040090F800C091F81DE043F82C20164B164655
:108514000A6943F82C20154B03F80CE00C46074677
:108524000FCC89B06D460FC594E80F0085E80F00A5
:10853400CDF810C0BEF1000F09D0002E0C4A6946D8
:1085440008BF3246381D00F091FD09B0F0BD002E81
:10855400084A694608BF324607F10C0000F06EFB7A
:10856400F3E700BFB8320020B4320020BC32002050
:1085740099840200CD840200044A137923B90121AD
:10858400106091801846704785207047C0320020E3
:10859400074B1A68D2075FBFC02283F80023012269
:1085A4001A604FF080430122C3F81825704700BFBA
:1085B40000E100E04FF080430122DA60D3F8182490
:1085C400D203FBD4704700004FF0804307B5D3F8C3
:1085D40000217AB10022C3F80021D3F800210092CF
:1085E400009A0122C3F808230F4B587910B95A7125
:1085F4001B6898474FF08043D3F8042182B10022CE
:10860400C3F80421D3F804210192019A0222C3F889
:108614000823054B1B68012003B05DF804EB1847E1
:1086240003B05DF804FB00BFC032002000F18040BD
:1086340000F5C040002382B0036003680193019BEE
:1086440002B07047800000F1A040D0F8002722F467
:108654004032C0F80027D0F8003743EA0141C0F89F
:1086640000177047C208012300F0070003FA00F066
:108674008B5C184388547047054B4FF0FF32072832
:1086840043F8202084BFC01880F84820704700BFFA
:10869400C832002038B5144D95F858400CBB202240
:1086A400FF2105F1300002F0C8FCE0B20134FFF70D
:1086B400E3FF0C2CF9D10D4B0022C0216A6583F82D
:1086C4000613402119604FF4BE70FFF7AFFF084B4B
:1086D4004FF00041C3F80413012385F858301046C5
:1086E40038BD0820FCE700BFC832002000E100E0EC
:1086F40000600040034B93F85800003818BF012075
:10870400704700BFC83200202DE9F041DFF8E48053
:1087140008EB0003054693F93030002B0F4664DA6A
:108724008B78C3F34003002B0BBF082400240C21D7
:1087340008218C4202D10420BDE8F08158F82400BD
:1087440001303DD108EB050166B248F8242081F8D8
:1087540030601BB908EB040383F84850BB785A0710
:108764000ED4D9072ED5AB0003F1A043D3F80027CC
:1087740022F00202C3F800271D492846FFF772FFC2
:10878400BB783A7813F0020325D0A40004F18044A6
:1087940004F5C0442D02D4F8103523F4473323F4F0
:1087A4004073C4F810351204D4F8103505F4F855A4
:1087B40002F4403215431D43C4F810550020BBE7B2
:1087C4000134B6E77A7805F5E0734FF0A0419200E2
:1087D40041F82320D0E7083E48FA86F696F8505030
:1087E40045EA821286F85020E8E70820A4E700BF93
:1087F4001C330020C832002038B5204C251895F9C8
:108804003020072A18DD083A44FA82F494F85030EC
:108814009B09032B0BD14FF0A043D3F81015C14093
:1088240001F001010231BDE83840FFF70BBF012B15
:108834000CBF02210321F6E7D3B2072B1DD8930006
:1088440003F1804303F5C043D3F8100540F0010061
:10885400C3F8100502F1400040B2800080B2FFF777
:10886400E5FE51B195F9303054F823302BB1012392
:1088740003FA02F2024BC3F8042338BDC8320020C5
:10888400006000404FF0A043D3F8103523FA00F005
:1088940000F00100704700002DE9F04F87B000247C
:1088A400584D03944FF48072012102F1804303F583
:1088B400C04390B21B68012B06D1D5F804330B4298
:1088C40002D0FFF7B3FE0C430432B2F5907F4FEAB7
:1088D4004101EAD14B4BD3F87C31012B0AD14FF43F
:1088E400BE70FFF7A3FE4FF0A04344F00044D3F85A
:1088F40010350393E3B2D3B1434F0025012634422C
:1089040010D0AB0003F1804303F5C043D3F8100546
:10891400D3F8101557F8253023B1C1F30141C0F342
:10892400042098470135082D4FEA4606E7D1002C6C
:1089340061DA00224FF0FF33CDE90423DFF8C88069
:10894400DFF8C89000273E464FF0A04B19F9014BC1
:10895400631C45D0C4F3C20318336B440122E5B24F
:1089640004F03F0004F0070402FA04F413F8042CA2
:10897400224235D008EB0002AD0992F9302058F8B4
:1089840022A0BAF1000F09D1032D29D104A9019322
:108994000090FFF767FEDDE9000301E0032DF5D049
:1089A40000F5E07113F80C3C5BF821102342C1F38D
:1089B400014105D0022913D1032D0CD1294604E02D
:1089C40003290DD1032D06D1022100900136FFF7B2
:1089D40039FE0098F6B2BAF1000F01D02946D0470B
:1089E4000137042FB2D136B14FF0A043039AD3F824
:1089F4001035934202D107B0BDE8F08F0393049B76
:108A040005939DE700600040C83200201833002021
:108A1400014B1B68184700BF243300200E4B9842BB
:108A240037B50C4602D0002003B030BD00230DF151
:108A340007008DF80730FEF7A1FD084B1D7915B925
:108A440001221C601A719DF80700FEF7BBFD002D82
:108A5400E9D01120E8E700BF0020004024330020C3
:108A64000023435082B043580193019B02B07047E6
:108A74000A4610B54FF48E71FFF7F2FF136A91683E
:108A8400C95C136A01331362C0F81C1510BD024699
:108A940008B500684FF49271FFF7E2FF10684FF4D5
:108AA4008471FFF7DDFF136801221A6008BD8B692A
:108AB4000A4610B54FF4847123B9FFF7D1FFD0F8FB
:108AC400183510BDFFF7CCFF536AD168D0F81805EC
:108AD400C854536A01335362F3E700001FB50123FE
:108AE4008DF80030044BCDE90110D3E9001268463B
:108AF400904705B05DF804FB2C33002030B54D4D94
:108B0400D5F804339A0585B051D5D5F82431002B16
:108B14004DD04FF492712846FFF7A2FF4FF4017332
:108B2400C5F80833444B93F829200AB901226A6036
:108B3400404902228DF80020D1F88024C1F8802415
:108B440003929A690292DA6801920022C3E906222A
:108B54006846D3E9001290473648D0F81C315BB11F
:108B6400354A116A536999424DD292F82830002B44
:108B740049D11146FFF77CFF2E48D0F84431002B31
:108B840055D04FF4A271FFF76BFF2B4B93F82920BC
:108B94000AB1012202609A69002A48D0586AD96849
:108BA40000229A6105B0BDE83040FFF797BFD5F8C1
:108BB40004335B07D0D5D5F80831002BCCD01E4C3C
:108BC4001C482146FFF773FF636AA2699A42C3D126
:108BD400E369E1684BB1A3612369E3600023606A40
:108BE400E3616362FFF77AFFB6E794F829300BB9C3
:108BF40001236B600F4B4FF40172C3F80823002369
:108C0400606AA361EEE74FF48E710A48FFF728FF0C
:108C140051690029B0D00023029191688DF8003089
:108C2400019153616846D2E900139847A4E705B05F
:108C340030BD00BF002000402C3300202DE9F84354
:108C4400564D90F804802C2303FB0853064693F8F2
:108C54002A300C469146002B40F09B805049006816
:108C6400FFF7DCFE0746002840F095802268306854
:108C7400511C0BD04FF0A04101239340C1F808359B
:108C840002F5E0734FF0030C41F823C061684B1CFC
:108C94001FBF01F5E0734FF0A04C4FF0000E4CF8ED
:108CA40023E0A369C0F8243594F814C0637DBCF1B3
:108CB400010F4CEA0303C0F86C35C0F81415C0F872
:108CC4000C251DD1A268531C1FBF02F5E0734FF0A1
:108CD400A0414FF0000C41F823C0E368591C0BD0AD
:108CE4004FF0A04C01219940CCF8081503F5E07130
:108CF4004FF0030E4CF821E0C0F80835C0F81025F9
:108D04002C2202FB08F2AB18C3F804902369AB5081
:108D1400B9F1000F2AD04FF48E71247FFFF7A0FE23
:108D240030684FF4A271FFF79BFE32681D4BC2F806
:108D34000433130B42F30732002AA8BF02F1604048
:108D44004FEA4411BABF184803F00F0400F561401C
:108D5400C9B2B4BF015580F8001303F01F03012109
:108D640001FA03F35209114941F82230336804220D
:108D7400C3F800252C2303FB08530022C3E9062271
:108D840083F829205A61012283F82A203846BDE855
:108D9400F8830827FAE71127F8E700BF2C330020EF
:108DA400018B02008000020014ED00E000E100E00D
:108DB4000279044B2C2101FB02335869003818BF97
:108DC400012070472C3300202DE9F84F06468946D0
:108DD4009246FFF7EDFF044600283DD196F8048043
:108DE4001F4F2C2508FB057B4FF48E71CBF8200018
:108DF400CBF814A08BF82800CBF808903068FFF764
:108E04002FFE3068012383605946FFF731FEDBF8FB
:108E140004305D4613BB30682A6A6B699A4211D3E9
:108E24003368D3F81C21002AFBD00122DA60002029
:108E34002C2303FB087700237B61BDE8F88F95F8AA
:108E440028303BB9D0F81C31002BF8D05946FFF735
:108E54000FFEE1E70F20EBE71120EEE72046ECE7F9
:108E64002C3300202DE9F0473A4D07792C2303FBDE
:108E7400075306465C6824B103684FF40170C3F8D5
:108E840008032C2303FB0753986950B1D8690028C1
:108E940041D024B133684FF40172C3F80423112480
:108EA40036E09A61D9605862D8612C2303FB0753DA
:108EB40093F829301BB910B93046FFF7E8FD4FF09D
:108EC4002C0808FB075A3068DAF80430002B37D135
:108ED4004FF4A271D046FFF7C3FD3068D0F8249157
:108EE400D0F80831D0F84441CBB914B9B9F1000F26
:108EF400F3D02C2303FB07550023AB61B9F1000F1A
:108F040024D12CBB95F8291033680122B1B11A6021
:108F14002046BDE8F0871961DA610120C5E7B9F19F
:108F2400000FE6D1002CE4D14146FFF7C0FDDAF88A
:108F34002430DAF818209A42CFD8DAE75A60E7E703
:108F44004FF40173C0F804330024E1E70324DFE79E
:108F54000F24DDE72C3300200023435082B0435814
:108F64000193019B02B070471FB501238DF80030B7
:108F7400044BCDE90110D3E900126846904705B0CF
:108F84005DF804FB583300207FB5364AD2F82461DB
:108F9400002E46D010464FF49271FFF7DDFF0223F6
:108FA4008DF80030D2F88034C2F880340393D2F8BC
:108FB4003C3502932C4BDA6801920022C3E9062265
:108FC4006846D3E9001290472648D0F8443173B17B
:108FD4004FF4A271FFF7C0FF234B9A693AB1002204
:108FE400C3E90622D968D0F83C05FFF7BDFF1D4848
:108FF400D0F820319BB14FF49071FFF7ADFF1A4BBD
:109004005A6962B1D0F84C150291002299688DF822
:10901400002001915A616846D3E90012904704B0D8
:1090240070BDD2F81031002BCED04FF488711046A9
:10903400FFF792FF0C4BD2F83C0599698842C3D1E3
:10904400DC69D96864B1D2F8005225F02005C2F871
:1090540000521A699C61DA60DE61FFF785FFB3E7AD
:109064009C61FAE700200040583300202DE9F843C2
:109074005A4E90F80480242303FB0863054693F8B2
:1090840020300C469146002B40F0A38054490068E0
:10909400FFF7C4FC0746002840F09D80226828683A
:1090A400511C0BD04FF0A04101239340C1F8083567
:1090B40002F5E0734FF0030C41F823C061684B1CC8
:1090C4001FBF01F5E0734FF0A04C4FF0000E4CF8B9
:1090D40023E0A369C0F8243594F814C0637DBCF17F
:1090E400010F4CEA0303C0F86C35C0F80C25C0F836
:1090F40014151DD1A268531C1FBF02F5E0734FF075
:10910400A0414FF0000C41F823C0E368591C0BD078
:109114004FF0A04C01219940CCF8081503F5E071FB
:109124004FF0030E4CF821E0C0F80835C0F81025C4
:10913400242202FB08F2B318C3F804902369B35045
:10914400B9F1000F34D04FF48871227FFFF704FF88
:1091540028684FF49071FFF7FFFE28684FF492716E
:10916400FFF7FAFE28684FF4A271FFF7F5FE2B68AB
:109174001C49C3F80413190B43F30733002BAEBF88
:1091840003F1604001F00F0417484FEA4212A8BFF0
:1091940000F56140D2B2B4BF025580F8002301F05B
:1091A4001F01012202FA01F15B09104A42F823105F
:1091B4002B680822C3F80025242303FB0866002338
:1091C400C6E906337361012386F820303846BDE8CA
:1091D400F8830827FAE71127F8E700BF583300207F
:1091E4008D8F02001003020014ED00E000E100E0A6
:1091F4000279044B242101FB02335869003818BF5B
:10920400012070475833002001F06043B3F1005F40
:109214002DE9F04706468846924635D190F80490E9
:10922400FFF7E6FF044688BB1A4F3068242505FB88
:1092340009754FF49071C5F814A0C5F80880FFF7BC
:109244008BFE4FF4AC713068FFF786FE33686A69B1
:10925400A968C3F84415C3F8482501229A606A68CE
:10926400B2B9D3F82021D3F858014AB90028F8D06C
:109274000F20242303FB097700237B61BDE8F087DB
:10928400002818BF0F20F4E71020F7E71120F5E7B6
:109294002046F3E758330020F8B501F06043B3F1FA
:1092A400005F04460F465ED10379304D242101FB53
:1092B4000351496821B100684FF40476C0F808638B
:1092C400242000FB03539E6956B1D869002839D085
:1092D40021B123684FF40472C3F80423112030E051
:1092E4009A61DF60DE6120684FF48871FFF734FE15
:1092F40020684FF4A271FFF72FFE2368C3F834757A
:10930400C3F8382516BB01221A602479242202FBF3
:10931400045252680ABBD3F81011D3F84421D3F88D
:109324002401114302D10028F5D00A46242303FB6B
:1093340004550023984218BF03209A42AB6118BF1A
:109344000F20F8BD1F61DA610126CCE7D3F80022B3
:1093540042F02002C3F80022D7E74FF40472C3F8A6
:1093640004230020EDE71020EBE700BF5833002072
:109374000220FEF7BDBF00002DE9F04780460D46F0
:10938400FEF7C8FF0328044610D8012D10D0022D83
:1093940030D05DB91A48FEF7E1F81A4B04EB4402E9
:1093A40013449D78184B1B5DAB4219D0BDE8F08780
:1093B400144E00EB4003F218F55C5378470053B1A8
:1093C400DFF84C900E484A464FF40041FEF77EF811
:1093D40008B989F8008027443E440B4BB2781A55EB
:1093E400002DE3D0094B1B68002BDFD02846BDE8D5
:1093F400F047184700EB4004024804446578EFE75F
:10940400A0330020E0330020F9330020F43300209F
:109414007C33002000780221FFF7AEBF08B5094B6A
:109424001B7853B10020FEF739FF0120FEF736FF09
:10943400BDE808400320FEF731BFBDE80840FEF751
:1094440039BF00BF7D330020F8B57A4C2378054638
:109454001BB100232370FFF7E1FF172D00F2878073
:10946400DFE805F00C1717425364757F878C878CEF
:10947400949999999999C3C8D0D8E3E3FFF7CEFF9B
:109484006D48FEF76BF86D4B002204461A702046B7
:10949400F8BD0020FEF7E8FEF0B10020FEF7FEFE66
:1094A400022D0CBF4FF4E1644FF47A64634B1D70DA
:1094B40000254FF400464FF4FA7029464FF47A72AF
:1094C4000023E4FB060101F0F5FB2A460146BDE852
:1094D400F8405948FDF7FABFFEF7D4FE022D0CBF41
:1094E400C8244FF4C874E1E70020FEF7BDFE40B184
:1094F4000020FEF7D3FE4FF44874504B03221A7039
:10950400D6E7FEF7BFFEC824F7E70020FEF7ACFE5F
:1095140038B10020FEF7C2FE4FF47A64474B0422B0
:10952400EDE7FEF7AFFE4FF4C874F7E70020FEF74F
:109534009BFE48B10020FEF7B1FE404B05221A7095
:1095440041F69A110022C2E7FEF79CFEF5E70020DF
:10955400FEF7CEFE394B06221A70002240F6CD41AA
:10956400B5E70020FEF78EFE344B07221A70002464
:109574008DE701202070FEF7BBFEEEE7012020708E
:10958400FEF7B6FE00224FF48041A0E7FEF7A1FEED
:109594002A4B0C22EAE72A482A4EFDF7DFFFD5F1D1
:1095A400110504461CD0D8B9012D13D0C820454359
:1095B40021464FF400474FF4FA704FF47A720023B7
:1095C400C5FB070101F076FB224601461C48FDF766
:1095D4007DFF04460220FEF755FE0123337056E753
:1095E4000220FEF75BFE0023F8E7FFF717FF134B9B
:1095F4001222BBE7FFF712FF0020FEF743FE0F4BDA
:109604001322B3E7FFF70AFF0120FEF73BFE0B4BE3
:109614001422ABE7FFF702FF0020FEF733FE012020
:10962400FEF730FE054B1522A0E7FEF752FE034B72
:109634001D709CE7F0330020C0330020F833002075
:10964400803300207D330020044B1B68DB0703D5E7
:10965400034B1878FFF7F8BE704700BFEC330020C7
:10966400F8330020044B1B6813F0010301D0FFF70B
:10967400EBBE1846704700BFEC33002038B51C4BD6
:1096840018601C4B10F00204054619601AD01A4BDE
:109694001A480E221A700F22DA7010229A711122BF
:1096A4005A72042140F26662FDF7DAFB044648B9B7
:1096B400FDF72CFC044628B90146114A1148FDF770
:1096C400F3FE0446EB0711D50120FEF735FE6CB915
:1096D40021460D4A0D48FDF7E7FE044630B9BDE8C2
:1096E40038400B4A0B480121FDF7DEBE204638BD49
:1096F400EC330020F4330020E0330020ACBE020041
:1097040019940200D0BE02004D960200D4BE02009D
:1097140075930200CCBE0200032811D8012A0AD195
:1097240001290FD100F10E02D2B20D4B00EB400023
:109734001A54002070470129F7D0022904D049B1F6
:10974400072070470022F8E7054B00EB400018445F
:109754004270EEE7024B00EB400018448270E8E7E9
:10976400E033002008B5012202210020FFF7D4FFD6
:1097740008B1072810D1072202210120FFF7CCFFEE
:1097840008B1072808D100210A220846FFF7C4FFC0
:1097940010B1072808BF002008BD00000388102B63
:1097A40010B502D0112B1ED010BD1A4C2168B1B9CE
:1097B40001220846FFF7B0FF08B1072824D1072289
:1097C40002210120FFF7A8FF08B107281CD10422B9
:1097D40002210020FFF7A0FF08B1072814D1236855
:1097E40001332360E0E70B4A1368013B1360002B4D
:1097F400DAD1FFF7B7FF0028D6D0074B1B68002B40
:10980400D2D0BDE810401847034B1B68002BE6D0AC
:109814009847E4E7043400200034002072DF7047E6
:1098240073DF70470378022B02D14068FDF784BBD5
:10983400012BFAD07047000038B5054D044645F0B9
:1098440001054FF47A40A847013CFAD138BD00BF66
:1098540020C002002DE9F047204B214CDFF888900E
:10986400DFF88880E41A8AB0E40800252404074657
:109874000E468DF808508DF8095044F00304DFF8C3
:1098840070A09DF808304B4503D09DF8093043453E
:1098940002D10AB0BDE8F0873A4651462046FDF7AA
:1098A400BFF816B13046FFF7C7FF0DF10700FEF70A
:1098B4003FFB0028E5D16B1C28356D449DF807203B
:1098C40005F8202C0AADD9B255FA83F303F8200C1D
:1098D400044B934214BF0D460025D0E798B702000D
:1098E400C0B7020012BF0200D8BE020074BC02005E
:1098F40073B802002DE9F04FC14D0FCDD9B049AC7A
:109904000FC495E80300BF4BBF4A3A933AAD4FF4F6
:10991400807384E80300CDE93C234FF000093B93B6
:10992400BA4ACDF854900723294649A8CB46FEF7F6
:10993400A7FA08B1FDF700FBB54BB64CB649E41ADB
:10994400E408240444F003042046FDF765F84FF4CA
:1099540000410020FCF7A4FE08B1FDF7EDFAFCF786
:10996400D3FDFDF771FD08B1FDF7E6FA00210120F2
:10997400FFF784FE08B1FDF7DFFAFEF77DF908B1C1
:10998400FDF7DAFA00F0D6FF08B1FDF7D5FA0023A7
:1099940049A90120499301F05FF808B1FDF7CCFA19
:1099A40049A801F019F908B1FDF7C6FA4C23ADF83E
:1099B400E8309A4B3C933C221723002149A8ADF888
:1099C400EC3001F03AFB04238DF82731944B529587
:1099D40018220021184601F030FB05220270A02253
:1099E4008260904A49A852F8041B00F043FC08B175
:1099F400FDF7A2FA8A4A8B498B48FFF70FFF08B19B
:109A0400FDF79AFA884B01211878FFF709FF08B18E
:109A1400FDF792FA0220FFF725FE08B1FDF78CFA54
:109A24004FF0A0450323C5F80C378049C5F87837B3
:109A34002046FCF7F1FF4FF4FA60FFF7FDFE7C4986
:109A44002046FCF7E9FF4FF4FA70FFF7F5FE794979
:109A54002046FCF7E1FF4FF4FA70FFF7EDFE76497C
:109A64002046FCF7D9FF4FF44870FFF7E5FE734931
:109A74002046FCF7D1FF4FF4FA60FFF7DDFE082320
:109A8400C5F80C356E492046FCF7C6FF6D4941F216
:109A9400EE122DA801F07EFA6B492DAA2046FCF7A0
:109AA400BFFF0027BA463D464FF47A70FFF7C4FE65
:109AB4000AF101031FFA83FABAF1090F28D94FF00A
:109AC400A046002F00F02C810823C6F80C354FF077
:109AD40080474FF4FA70FFF7AFFEC6F80C754FF4E9
:109AE400FA70FFF7A9FEC6F808754FF4FA60FFF79D
:109AF400A3FE56492046FCF78FFF4FF4FA614F4806
:109B0400FFF7A8FE52492046FCF786FF0027BA4615
:109B14000DF16700FEF70CFA8046002840F0A3819F
:109B24004C490A78531CDBB20B7002F5B0729DF8F5
:109B3400671003F5B0736A446B440A2902F8CC1C1D
:109B440003F8CC0C40F0878125AE434932462046C9
:109B5400FCF766FF9DF89B30542B34D19DF89C3064
:109B6400412B30D19DF89D20472A2CD18DF89B3074
:109B74000E224546B35CA3F1300109299EBF05EBD3
:109B8400850503EB4505303D02F1010298BFADB2F6
:109B9400112AEFD1FE2D08D9FF23B5FBF3F31FFAE9
:109BA40083F9C3EB0323ED1AADB22C4B2C4983F894
:109BB4001290DD744A462B462046FCF73AFF294AA8
:109BC4001378013313709DF89430612B40F0408179
:109BD4009DF895306E2B40F03B819DF897303A2BE1
:109BE4009DF898300CBF042200223A2B08BF0522AE
:109BF400022100208A4200F3A680002334E000BF43
:109C0400FCBF02004334002045350020299802009F
:109C140098B70200C0B70200DABE0200C92A0020C9
:109C24000C340020B82A0020C82A0020E5BE020017
:109C3400EFBE020003BF020014BF02001DBF0200FA
:109C44002EBF020038BF020073B802003BBF0200FF
:109C540044BF02000934002066BF0200E02A00204D
:109C64006ABF020044350020B15CA1F1300CBCF1A4
:109C7400090F9EBF03EB830301EB4303303B02F167
:109C8400010298BF9BB20A2AEED1DFF87C8340F22E
:109C9400366298F80010934228BF134601F5B0725B
:109CA4000DEB02014FF0060C01F8F80C6420B3FB35
:109CB400F0F200FB12339BB2B3FBFCF000EB021298
:109CC4000CFB103080B20228D2B24AD801F8F42C2E
:109CD4002046C5493246FCF7A3FE98F80020C34944
:109CE40002F5B0730DEB0302204612F8F43C12F8AF
:109CF400F82CFCF79EFE98F800200132D2B2002323
:109D0400032A8DF894308DF8953088F8002040F0BF
:109D14009F801AA91E460DF16C0C1AA800222EE091
:109D24004FF4FA61B248FFF795FD0823C6F80835E9
:109D34004FF4FA70FFF780FDAE492046BA46FCF7AF
:109D44006BFE0127E4E6735CA3F1300CBCF1090F50
:109D54009FBF00EB800003EB4000303880B201313C
:109D640048E7592B98BF0132B0E710F801EB91F89E
:109D74000080F04504BF03F80C600E7001329A4273
:109D8400F3D1022A02F1010301F10101C5D19A497B
:109D94009DF86CC09DF869E09DF8680081F80DC0DD
:109DA4006FF024038B704FF017030B714FF0140303
:109DB4004B714FF028038B714FF0FF33CB719DF83B
:109DC4006D30CB7316939DF86A300B740026152200
:109DD4004FF0C50817939DF86E30CA7081F80EE0F5
:109DE40008734B7481F816800E724E728E72CE72A6
:109DF400CDF84C80DFF8208298F8001012917F494A
:109E04000978CDE91051CDE90E39179B0D93169BB6
:109E14000092CDE90BE3FF212823CDE9090CCDE91C
:109E2400033114201723CDE901300221DB23CDE9CE
:109E34000766CDE90566724801F070F8714801F0D3
:109E44008FF898F80030013388F800306E4B1E709C
:109E54006E4B00221A70FCF77DFC00287FF424AEC0
:109E6400FDF720FF20E63C2200213AA801F0E5F8A6
:109E74004C2267490023CDE92233ADF8882017220C
:109E8400ADF88C200A788ABB624B249301230B70B3
:109E9400BDF82A313A2BBDF82C310CBF0421002126
:109EA4003A2B08BF0521022649AA8E422FDB02EB7A
:109EB40041010623013B3BD153490A7858A800EBE2
:109EC400420601324FEA1B2CD2B2159826F8E8CC90
:109ED400032A5FFA8BFC26F8F00C26F8E0CC0A7013
:109EE40044D11CAA9C461CAE002138E04A4A117891
:109EF400FF29424904BF13700B703F4B12785A7507
:109F04000978434A1975249300231370C0E732F883
:109F14001630A3F1300CBCF1090F07D8159800EBEB
:109F2400800C03EB4C03303B9BB215930136BCE72A
:109F340031F8022BA2F13006092E9FBF0BEB8B06E2
:109F440002EB4602303A1FFA82FBB3E736F802EB23
:109F5400B2F80080F04508BFA2F800C00131994270
:109F6400F4D10133032B02F10202BCD1224BDB22D8
:109F74009A701522DA7017221A7114225A71282243
:109F84009A71FF22DA7100221A72BDF870205A7297
:109F9400BDF878209A72BDF88020DA72BDF872207C
:109FA4001A73BDF87A205A73BDF882209A73BDF8EB
:109FB4007420DA73BDF87C201A74BDF884205A74B6
:109FC400C5229A75154A04238DF8EB3052F8041B08
:109FD40022AB3AA8439300F04DF900283FF43BAF7D
:109FE400FCF7AAFF37E700BF78BF020082BF020078
:109FF4004CBF02005DBF0200E02A00204335002070
:10A0040099BF0200EDBF020008340020093400208B
:10A0140045360020F72A002044350020B82A0020C5
:10A024000369C26893429CBF80681B18013B981A5D
:10A0340070472DE9F843D0E902940546A9EB0408DA
:10A044004068904520440F46144404D900F0CCFFE6
:10A05400EC60BDE8F8834246A4EB090400F0C4FFB9
:10A064006868224607EB0801F0E72DE9F843C56864
:10A074000646894617464FF000083469B36870688D
:10A08400A54228BFE418013C621B5C1BBC4228BFEC
:10A094003C46944228BF144649462844224600F0D0
:10A0A400A3FFB3682544AB4208BF00253F1BA0446F
:10A0B400A144F560E1D14046BDE8F88310B5114CE8
:10A0C400114AA2610223C4E90433104BE361A26480
:10A0D4004FF400730E4A0F492362E26400231022F6
:10A0E400E01DA3626362E362A3656365E3652265C1
:10A0F40000F0D6FF0849204600F0D2FF2023A371C8
:10A1040010BD00BF4836002026C00200D036002013
:10A11400C03600202FC0020033C0020070B5164BB9
:10A12400182400FB04451D4404FB00331646DC6A76
:10A13400012C0ED0022C18D0E4B92846FFF770FF8A
:10A14400864204D832462846FFF773FF3446204639
:10A1540070BD2846FFF764FF8642344628BF044694
:10A1640022462846FFF765FFF1E72846BDE8704020
:10A17400FFF77BBF0024EAE748360020FFF79EBFC5
:10A184006DDF704779DF70477DDF704764DF7047AC
:10A194002DE9F04F85B000250E9CBDF83CB0B4F815
:10A1A40000A00191074690461E46A9463A884A45B2
:10A1B4000DDC45B12388013BA3EB0A039BB2FF2BC3
:10A1C4003AD806F80A30002005B0BDE8F08F7A6866
:10A1D40052F82900039000220DF10B0103A8FFF7A8
:10A1E400D5FF0028F0D19DF80B20424521D12288CB
:10A1F400002D14BF0020022002EB08010144594540
:10A204001ADC3DB9013292B2019B2280B3542288F8
:10A214000132228022880DF10B01324403A8FFF79A
:10A22400B5FF0028D0D121889DF80B200A44228054
:10A23400012509F10109B9E70C20C5E72DE9F3412E
:10A24400089FBDF824801546CDE900780222044613
:10A254001E46FFF79DFF50B933461022294620467B
:10A26400CDE9087802B0BDE8F041FFF791BF02B034
:10A27400BDE8F0812DE9F04F00231788138090F892
:10A284002D3085B006460D4614465BB3082F01D821
:10A294000C2028E102A8FFF773FF002840F0238177
:10A2A4002388DDF809100822EA54238801339BB27D
:10A2B4001B222380EA54238801339BB2EA182380AB
:10A2C400E950BDF80D30938023889DF808200633AB
:10A2D4009BB212F0FE0218BF01222380EA542388A5
:10A2E40001332380B378FBB123880433BB42CFD836
:10A2F40002A8FFF747FF002840F0F58023880322D7
:10A30400EA54238801339BB219222380EA54238818
:10A31400BDF8082001339BB2E9182380EA54120ADD
:10A324004A70238802332380F2789AB12388D91C97
:10A33400B942ADD80221E954238801339BB20121EB
:10A344002380E95423880B449BB22380EA54238856
:10A354000B4423807268AAB12388D91CB94297D8C8
:10A36400022192F90020E954238801339BB20A2187
:10A374002380E954238801339BB22380EA54238841
:10A38400013323803389002B40F0A180338A5BB1F1
:10A39400CDE900472B460722032106F11000FFF701
:10A3A4004DFF002840F09F80338B5BB1CDE900471F
:10A3B4002B461522142106F11800FFF73FFF002851
:10A3C40040F09180326A002A40F09080D6F82480D0
:10A3D400B8F1000F30D0B8F804302188981C8A1CDA
:10A3E4000244BA423FF654AFFE283FF651AF03335E
:10A3F4006B54238801339BB2FF222380EA542388C1
:10A4040001339BB22380B8F80020EA54E918120AF9
:10A414004A702088023080B22080B8F804205AB1F3
:10A42400D8F8081000296BD0284400F0DDFD2388FB
:10A43400B8F804201344238096F82C30002B40F005
:10A444009880307800284ED03388012B58D0228849
:10A4540002F1020CBC453FF61BAF012805D173780D
:10A46400023313449F42FFF413AF023FBF1ABFB23B
:10A4740002A905EB0C00ADF80870FFF785FE90BB50
:10A484003178BDF80830022900F0B98072789A4218
:10A4940002D39F4280F0B180012940F0B2809742FC
:10A4A40093B2C0F0AE80ADF808300821BDF8083092
:10A4B400FE2B3FF6EDAE22880133AB5422880132E5
:10A4C40092B22280A9542288134423800BE0CDE960
:10A4D40000472B460622022106F10800FFF7AEFED4
:10A4E40000283FF453AF05B0BDE8F08FB4F800C0C6
:10A4F4000CF10603BB423FF6CBAE1188052901D807
:10A504000720F0E76FF4486E01EB0E039BB24FF2A5
:10A514007D3E7345F4D95388052BF1D96FF4486017
:10A52400181880B27045EBD94FF6FF70814201D004
:10A534009942E5D8052305F80C30238801339BB2F2
:10A5440012212380E954238801339BB2238011888C
:10A55400E954E818090A4170238802339BB2238026
:10A564005288EA54E918120A4A7023880233238075
:10A574002CE7B36A002BC3D04FF000084FF00C0A4D
:10A584004FF0160BB16A5FFA88F20AFB02F201EB94
:10A594000209B9F80430981CFE283FF679AE2088E9
:10A5A40003332B54238801339BB2238005F803B073
:10A5B400238801339BB223808A5AEA54E918120A89
:10A5C4004A702088023080B22080B9F804205AB141
:10A5D400D9F80810002993D0284400F005FD2388F9
:10A5E400B9F804201344238096F82C2008F10108BC
:10A5F4005FFA88F39A42C5D823E7092156E79F42B8
:10A60400FBD2ADF8087050E7034B1A8882420CBFA6
:10A6140018460020704700BFEC380020024B9B69AD
:10A6240003B11847704700BFD038002037B50B4638
:10A63400497A0F4A79B9D2E901141D7A0246002DEC
:10A6440018BF21465868FCF741FF78B103B0BDE854
:10A654003040FFF7E3BF00211972536933B101227F
:10A66400ADF806008DF8042001A8984703B030BD6A
:10A67400D03800204B8802889A4212D842889A42E5
:10A684000FD380888B8840F2F311884294BF021A5A
:10A69400421A9A4205D80844984234BF0020012047
:10A6A40070470020704700000388122B70B50146E4
:10A6B40059D004D8102B1ED0112B44D070BD502B70
:10A6C400FCD12F4BC288DB899A42F7D1038A022B33
:10A6D400F4D186883046FFF797FF05460028EDD071
:10A6E40001F1120000F0D8F838BB6868FCF736FFB7
:10A6F4000028E3D009E0C37B012BDFD14FF6FF70C4
:10A70400FFF782FF054620B90420BDE87040FFF73B
:10A7140085BF1C4A8E880680002303721368C0F824
:10A724000A305368C0F80E3010310A30FFF7A2FF28
:10A73400134B6872DB89002BC0D129463046BDE833
:10A744007040FFF773BF8088FFF75EFF0446002860
:10A75400B4D04068FCF702FF08B1FFF75FFF4FF683
:10A76400FF732380AAE786883046FFF74DFF05462E
:10A774000028A3D008310A30FFF77CFF6872DCE7B9
:10A78400D03800200039002073B50191019C0646A1
:10A794006CB100252C46294601A8FCF73CFF18B1F2
:10A7A40006EB440301349D800135142DF3D130466A
:10A7B400346002B070BD00002DE9F047038884883E
:10A7C400112B8CB005463DD01A2B42D0102B19D139
:10A7D400DFF8C080D8F80830DB430093D8F80410C1
:10A7E4006846FCF744FF009901A8FFF7CDFF0DF17F
:10A7F40008090027019B9F4207D3132C12D9042078
:10A80400FCF79AFB0CB0BDE8F08739F802AB0026E0
:10A814000136514608EB8600FCF7F3FE1D2EF7D1F6
:10A824000137E7E716482146FCF7E2FE15482146C2
:10A83400FCF7DEFEEB7B012BE4D013482146FCF74A
:10A84400D7FEDFE70E4821460CB0BDE8F047FCF721
:10A85400D8BE037A0D481F2B4FEA131521460AD997
:10A86400FCF7C6FE022D0A482146EDD00CB0BDE827
:10A87400F047FCF7BDBEFCF7C4FE05482146E3E7FC
:10A88400103900200C390020143900201839002018
:10A894001C39002008390020008800F001007047AE
:10A8A40010DF704713B5044609496846FDF72BFAD3
:10A8B400019808B902B010BDD0E9002120469047A4
:10A8C40018B16846FDF729FAF2E71120F2E700BF54
:10A8D4005CC0020013B5044607496846FDF713FA45
:10A8E400019B0BB902B010BD2046D3E9002190476B
:10A8F4006846FDF712FAF3E774C002000B4991F8B9
:10A9040016335A09EC231341DB0706D5084B9A6822
:10A914003AB94FF480030B60704742F20200FCF72F
:10A924000BBB1A6842F480021A60704700E100E031
:10A9340058320020F7B5194F3C7864BB184E0125F6
:10A9440020463570FFF7AEFF112821D02046FFF7CF
:10A95400C1FF144B8DF80340186801900DF10300FA
:10A96400FCF70CFE104901A8FFF79AFF0446B0FA61
:10A9740080F0400938709DF80300FCF723FE3CB9D1
:10A984000A4B34701C70FFF7B9FF2846FFF7A2FF8B
:10A99400204603B0F0BD0824FAE700BF8139002047
:10A9A4008039002057C00200596F0200823900200C
:10A9B400014B1878704700BF8139002007B508495A
:10A9C4006846FDF7A0F9019B13B903B05DF804FBD9
:10A9D400D3E9002090476846FDF79FF9F3E700BFED
:10A9E40068C00200FFF7EABF60DF704769DF7047A5
:10A9F40061DF704730B5134DADF5017D4FF4FA7446
:10AA04000DF1020103A8ADF80240FFF7F1FF70B9A0
:10AA1400294601A8FDF777F9029B002BF0D003A883
:10AA2400D3E90021904701A8FDF777F9F4E7052859
:10AA340005D00DF5017DBDE83040FCF77DBA0DF57C
:10AA4400017D30BDFCC20200024B1B780BB1FFF745
:10AA5400D1BF70478339002030B5054685B00C4618
:10AA6400002900F0A4800023CDE90133514A039367
:10AA740001230A608DF804008DF8063001A906232D
:10AA84002020ADF80830FFF7B1FF60B1FDF770F991
:10AA9400494B4A4902464A481B1ADB081B0443F047
:10AAA4000100FBF7BDFF0023CDE9013303932268C6
:10AAB400012301A940208DF80530FFF797FF60B10D
:10AAC400FDF756F93C4B3F4902463D481B1ADB084B
:10AAD4001B0443F00100FBF7A3FF0023CDE901337E
:10AAE400039322688DF80450F72301A92320ADF8BD
:10AAF4000630FFF77BFF60B1FDF73AF92E4B324980
:10AB040002462F481B1ADB081B0443F00100FBF725
:10AB140087FF002301202268039301A9CDE90133B3
:10AB24008DF80400FFF762FF60B1FDF721F9224BB5
:10AB34002649024622481B1ADB081B0443F0010085
:10AB4400FBF76EFF0023CDE9023322684FF4B063B4
:10AB540001A9A1200193FFF749FF60B1FDF708F9AE
:10AB6400154B1B49024616481B1ADB081B0443F00D
:10AB74000100FBF755FF00252268039501A9A020D9
:10AB8400CDE90155FFF732FF034668B1FDF7F0F850
:10AB9400094B104902460A481B1ADB081B0443F000
:10ABA4000100FBF73DFF2B46184605B030BD0E23D0
:10ABB400FAE700BF982A0020E8B7020080C002002C
:10ABC40098B70200C6C0020012C1020059C10200B7
:10ABD400A5C10200F6C1020073B505460668FFF779
:10ABE40003FF2B68B34204461DD91A481A4B1B496C
:10ABF4001B1ADB081B0443F002000190FBF70CFF57
:10AC04002B68174901983246FBF713FF4FF0805326
:10AC14002A68D3F80C31134901989B0203F10053BD
:10AC24009A1AFBF7FDFE2CB90F4B01221A7020462D
:10AC340002B070BD2046FDF79BF8074B0B49024656
:10AC440004481B1ADB081B0443F00100FBF7E8FE71
:10AC5400EDE700BF98B70200E8B7020049C202005E
:10AC640078C20200A9C2020083390020D3C20200C4
:10AC74004BDF70471FB50E4C01A8FFF7F9FF70B901
:10AC8400214602A8FDF73FF8039B002BF4D001985E
:10AC9400D3E90021904702A8FDF73FF8F4E705281F
:10ACA40004D004B0BDE81040FCF746B904B010BDB0
:10ACB40014C3020053EA020C61D02DE9F04BB3FA3D
:10ACC40083F51E0007BFB2FA82F502FA05F403FA0F
:10ACD40005F41646C5F120051EBF22FA05F73C43CC
:10ACE400203556EA044C4FEA144418BF0134A346F5
:10ACF4004FF00009C846904271EB030C39D3094266
:10AD040007BFB0FA80F700FA07F6B1FA81F701FA43
:10AD140007F6C7F120071EBF20FA07FC46EA0C0617
:10AD24002037B6FBFBFC7F1B103F07F01F04C4F168
:10AD340020060CFA04F42CFA06F644BF3446002626
:10AD4400202FA4BF2646002454EA060C08BF012481
:10AD540018EB040849EB0609A4FB027CC01B06FBA4
:10AD640002CC04FB03CC71EB0C01904271EB030C9D
:10AD7400C5D20B46024649464046BDE8F08BB2FBBD
:10AD8400F3F200007F2805D8034A044B105C5B5C97
:10AD940018407047002070472CC30200ACC3020067
:10ADA400A0F16103192B98BF20387047A0F141032B
:10ADB400192B98BF203070477F299ABF017001205A
:10ADC4006FF02E00704700BF5AB10A787F2A0AD864
:10ADD40000B102600021501AC3E9001118BF01201C
:10ADE4007047104670476FF02E007047A0F1610362
:10ADF400192B98BF20387047A0F14103192B98BF35
:10AE0400203070477F2805D8034A044B105C5B5CF4
:10AE140018407047002070472CC30200ACC30200E6
:10AE240038B585680446084645B122686168531CF4
:10AE34008B4208BF00208A420AD2A854E2682368E1
:10AE44002AB161688B4202D22146904723680133BC
:10AE5400236038BD70B54D1E22D413681446C6B2A3
:10AE64000EE0D0542368E2682AB16168994202D99D
:10AE7400214690472368013D01336A1C23600FD0AB
:10AE8400A26872B1616803F1010C8C4514BF3046AD
:10AE940000209942E5D8013D63466A1C2360EFD146
:10AEA40070BD3046DFE700BFC3062BD410F4007F2B
:10AEB40070B514BF302620264D1E22D413681446C4
:10AEC400F6B20EE0D0542368E2682AB16168994270
:10AED40002D9214690472368013D01336A1C23604F
:10AEE4000FD0A2687AB1616803F1010C8C4514BFDC
:10AEF400304600209942E5D8013D63466A1C236030
:10AF0400EFD170BD70473046DEE700BF024B5B688F
:10AF14009B6809211B681847102B00200FB410B53B
:10AF240088B00AAB0D4A53F8041B03936FF000403A
:10AF34000024CDE905040191079200F001FC039A75
:10AF4400019904A800F0FEF8019000F0FBFB0198C1
:10AF540008B0BDE8104004B0704700BF897D02000E
:10AF640010B582B0441E00F0EBFB03E0FCF70AFFCF
:10AF7400431C08D014F8010F00210028F6D1014623
:10AF84000A20FCF7FFFE019000F0DCFB019802B000
:10AF940010BD00BF0EB410B587B009AA0024CDE9D6
:10AFA400040452F8041B01926FF0004302A80393B7
:10AFB40000F0C8F807B0BDE8104003B0704700BF08
:10AFC400027862B169B100EB010C034601E063450C
:10AFD40003D013F8011F0029F9D1181A704710463D
:10AFE40070470846704700BF844640EA010313F0E7
:10AFF400030F18D18446202A0BD32DE9F007B1E8BA
:10B00400F807A0E8F807A2F12002202AF7D2BDE849
:10B01400F007042A07D351F8043B40F8043BA2F19B
:10B024000402042AF7D2002A05D011F8013B00F8E3
:10B03400013B013AF9D1604670478446002A2DD07D
:10B0440010F0030F04D000F8011B013A26D0F7E7F3
:10B05400C9B241EA012141EA0141202A12D3A2F1F5
:10B0640020022DE9F0030B460C460D460E460F4612
:10B0740088468946A0E8FA03203AFBD2BDE8F003EB
:10B0840020320BD0042A05D340F8041B043A05D01F
:10B09400042AF9D200F8011B013AFBD1604670473B
:10B0A400024610F0030F16D111F0030F13D12DE94E
:10B0B400F0004FF001374FF0803351F8044BA4EB0C
:10B0C400070525EA04051D4002D142F8044BF4E7C4
:10B0D400A1F10401F0BC11F8013B02F8013B002B83
:10B0E400F9D1704700F1010110F0030F11D010F8ED
:10B0F400012B002A23D010F0030F0AD010F8012BE3
:10B10400002A1CD010F0030F03D010F8012B002AE2
:10B1140015D02DE970004FF001324FF0803350F814
:10B12400044BA4EB020525EA04051D4000D1F6E713
:10B13400A0F1040070BC10F8012B002AFBD1A0EB95
:10B14400010070472DE9F04F00230C46036089B0DD
:10B1540014F8011B03920746002900F0E582DFF88A
:10B16400DC9507E03846FFF75BFE14F8011B002965
:10B1740000F058812529F5D12246002612F8010B4A
:10B18400302800F29E801F280ED9A0F12003102B36
:10B194000AD8DFE803F0AC0909A8090909A40909D8
:10B1A40009A0099C09098D002A2840F0FC80039B12
:10B1B40010781D680433002D0393BCBF6D4246F024
:10B1C4001006A21C2E2800F004810021742800F02F
:10B1D40092807A2800F08F806C2800F032814C280D
:10B1E40000F03581682800F0BE811446002800F084
:10B1F4008880A0F12503DAB2532A00F22B81532B65
:10B2040000F22881DFE813F0EB0126012601260174
:10B2140026012601260126012601260126012601F2
:10B2240026012601260126012601260126012601E2
:10B2340026012601260126012601260126012601D2
:10B2440026012601260126012601260126012601C2
:10B2540026012601260126012601260126012601B2
:10B264002601260126012601260126012601820047
:10B274002601260126012601260126012601260192
:10B2840026012601D601F600260126012601260103
:10B29400F600260126012601260150024802130267
:10B2A40026012601ED012601CB0126012601840099
:10B2B40046F400761446224612F8010B30287FF635
:10B2C40062AF5E286FD146F480561446F3E746F029
:10B2D40010061446EFE746F020061446EBE746F462
:10B2E40000461446E7E746F080061446E3E746F0D6
:10B2F40040061446DFE7144614F8010B00287FF4D7
:10B3040078AF4FF0FF3009B0BDE8F08F46F4005637
:10B3140016F0800A06D043F2780A43F258037828DC
:10B3240018BF9A4616F4807307BF06F48042B046ED
:10B3340026F4007806F48042002A61D1039A18F0BA
:10B34400040F02F104060396126800F0A08092B282
:10B35400002B65D028F400785838202800F29D800E
:10B36400DFE810F073019B009B009B009B009B0097
:10B374009B009B009B009B009B009B00D4009B00B8
:10B384009B009B009B00D4009B009B009B009B00A8
:10B394009B00090173019B009B009B009B00D40050
:10B3A4009B009B007301A0F13004E3B2092B4FF022
:10B3B40000053FF607AF12F8010B05EB850504EB1A
:10B3C4004505A0F13004E3B2092BF4D92E287FF40B
:10B3D400FCAE10782A2840F07781039B50781968D6
:10B3E400941C0433002903932246FFF6EFAE46F47F
:10B3F4008076EBE646F4804806F480734FF0000A4A
:10B40400039A18F0040F02F104060396126830D070
:10B4140012B2002A31DA52424FF02D0A002B99D190
:10B42400012199E73868BB68002B3FF46CAF7A6858
:10B4340082427FF668AF00221A54386809B0BDE82A
:10B44400F08F144646F0010614F8010BCEE646F0E0
:10B4540001061446B54BD3F80080B8F1000F3FF451
:10B4640084AE009103A901912B4632463946C04768
:10B474007BE618F0080FCCD0D2B218F0200F40F0C1
:10B484003E8118F0400F18BF4FF0200A60E718F013
:10B49400080F3FF45DAFD2B25AE74FF0FF360023F6
:10B4A40021EAE17BA5EB0B05BAF1FF0FA5EB030540
:10B4B40040F20481CAF307213846023DFFF7B0FC8D
:10B4C4005FFA8AF13846FFF7ABFC40463A46294614
:10B4D400FFF7EAFC3A4659463020FFF7BBFC731CE1
:10B4E4000AD001360DF1140A564416F8011D3846E7
:10B4F400FFF796FCB245F8D118F0100F3FF435AEC3
:10B5040029463A462020FFF7A5FC2EE61046002ADD
:10B5140000F0068108F4004C624600238C464FF08C
:10B524002C0E114603F0030209B1032A14D01E465F
:10B53400A9FB0032D20802EB820306F1200BA0EB38
:10B544004303EB44303309280BF80C3C06F10103A8
:10B5540040F2D2801046E5E703F120026A445E1C03
:10B5640002F80CECE4E71078682800F0D480541C4E
:10B5740046F004063AE61046002A00F0D1800DF1A8
:10B58400140C002302F007023032C0080CF8012B1F
:10B594001E46024601330028F4D1C91A80E716F486
:10B5A400807300F0AF8026F4007806F480424FF0F8
:10B5B400000AC1E6039B013D191D93F80080039125
:10B5C4003A4629463046FFF76FFC41463846FFF7B6
:10B5D40027FCB3461BF0100F3FF4C7AD90E72521BD
:10B5E400C0E5039B524A181D0390D3F800A0BAF19A
:10B5F400000F08BF9246F205D04626F4007B504661
:10B6040040F18580FFF7DCFC0646AD1B3A4629462F
:10B614005846FFF749FC002EDCD018F8011B3846C9
:10B62400FFF7FEFBAAEB0803F342F6D1D2E7039B34
:10B634001A1D039216F0800F1A6846F480780CBF26
:10B644004FF0000A4FF0230A08211046002A67D061
:10B6540008F4005C634605AA8C460026A3461946F6
:10B6640009E0344B000913F80E3002F8013B06F1EF
:10B6740001030DD01E4600F00F0E0029F1D12E4C0F
:10B68400000914F80E3002F8013B06F10103F1D170
:10B6940061465C46C91A03E716F0800F0CBF4FF0F1
:10B6A400000A4FF0300A3DE6039B3A68191D0391E6
:10B6B4001B6831074CBF1A701A6056E5BAF1000FC7
:10B6C4003FF403AF013DFBE6A0F13004E3B2092BE4
:10B6D40002F101024FF000013FF689AE12F8010BAE
:10B6E40001EB810104EB4101A0F13004E3B2092B29
:10B6F400F4D946F4807669E56146C91AD0E64FF07C
:10B704002B0A25E606F48042B0469A4614E6FFF773
:10B71400E9FC064679E7507846F00806941C65E58E
:10B7240013464FF0FF36BBE608467CE6843900201A
:10B7340080C5020070C5020060C50200CDCCCCCC2F
:08B74400704700BF704700BF11
:08B74C00BD83020000000000B3
:10B75400BDA7020000000000A19702000000000045
:08B76400ADA602000000000088
:08B76C003D8402000000000012
:10B774004DAA02000000000079AC020000000000A5
:10B78400682B0020302C0020382C0020702B002047
:04B794001800000099
:10B798008EBE02000000000094BE020000000000FF
:10B7A8009BBE0200000000009FBE020000000000D7
:10B7B800A4BE02000000000045B802000000030318
:10B7C80047C002000000000088BE02000000000020
:10B7D8003AC00200000003034FC002000000030348
:10B7E800F0C202000000030308C3020000000303C4
:08B7F80056B902000000000038
:10B8000018B802000000000024B80200982A0020A6
:10B810000338FDD870470000D96302004564020078
:10B82000D56302007274745F6C6F675F6261636BF3
:10B83000656E64004261636B656E647320666C754F
:10B840007368656400617070000000005C30002067
:10B850007F000000DC3000201B5B313B33316D008A
:10B8600025734C6F67732064726F70706564202855
:10B8700025642925730D0A001B5B306D003C257380
:10B880003E2025733A2000202530327800202020E9
:10B89000007C002563001B5B313B33306D001B5B7C
:10B8A000313B33326D001B5B313B33336D001B5B2F
:10B8B000313B33346D001B5B313B33356D001B5B1B
:10B8C000313B33366D001B5B313B33376D007761A5
:10B8D000726E696E6700696E666F00646562756797
:10B8E0000000000078B8020096B8020058B80200C4
:10B8F0009EB80200A6B80200AEB80200B6B80200B8
:10B90000BEB80200C6B802000000000026B902005E
:10B91000CEB80200D6B80200DBB80200FC3000202E
:10B92000466174616C206572726F72005379737432
:10B93000656D2072657365740000000000000000F2
:10B940000338FDD870473031323334353637383923
:10B950004142434445467077725F6D676D740000E5
:10B960006CB702006CB70200040000004E52465F44
:10B9700053554343455353004E52465F4552524F31
:10B98000525F5356435F48414E444C45525F4D49C8
:10B990005353494E47004E52465F4552524F525FF5
:10B9A000534F46544445564943455F4E4F545F45B7
:10B9B0004E41424C4544004E52465F4552524F5212
:10B9C0005F494E5445524E414C004E52465F4552DF
:10B9D000524F525F4E4F5F4D454D004E52465F45B0
:10B9E00052524F525F4E4F545F464F554E44004E99
:10B9F00052465F4552524F525F4E4F545F5355501F
:10BA0000504F52544544004E52465F4552524F5299
:10BA10005F494E56414C49445F504152414D004EA2
:10BA200052465F4552524F525F494E56414C49442F
:10BA30005F5354415445004E52465F4552524F5257
:10BA40005F494E56414C49445F4C454E475448006F
:10BA50004E52465F4552524F525F494E56414C49F5
:10BA6000445F464C414753004E52465F4552524F49
:10BA7000525F494E56414C49445F44415441004E47
:10BA800052465F4552524F525F444154415F5349C1
:10BA90005A45004E52465F4552524F525F54494DEF
:10BAA000454F5554004E52465F4552524F525F4EDD
:10BAB000554C4C004E52465F4552524F525F464FD6
:10BAC0005242494444454E004E52465F4552524F01
